{
	"MarketPlace/MarketPlace.sol": {
		"MarketPlace": {
			"abi": [
				{
					"anonymous": false,
					"inputs": [
						{
							"indexed": true,
							"internalType": "uint256",
							"name": "itemId",
							"type": "uint256"
						},
						{
							"indexed": true,
							"internalType": "address",
							"name": "seller",
							"type": "address"
						},
						{
							"indexed": false,
							"internalType": "string",
							"name": "name",
							"type": "string"
						},
						{
							"indexed": false,
							"internalType": "uint256",
							"name": "price",
							"type": "uint256"
						}
					],
					"name": "itemListed",
					"type": "event"
				},
				{
					"anonymous": false,
					"inputs": [
						{
							"indexed": true,
							"internalType": "uint256",
							"name": "itemId",
							"type": "uint256"
						},
						{
							"indexed": true,
							"internalType": "address",
							"name": "buyer",
							"type": "address"
						},
						{
							"indexed": true,
							"internalType": "address",
							"name": "seller",
							"type": "address"
						},
						{
							"indexed": false,
							"internalType": "uint256",
							"name": "price",
							"type": "uint256"
						}
					],
					"name": "itemPurchased",
					"type": "event"
				},
				{
					"inputs": [
						{
							"internalType": "uint256",
							"name": "_itemId",
							"type": "uint256"
						}
					],
					"name": "buyItem",
					"outputs": [],
					"stateMutability": "payable",
					"type": "function"
				},
				{
					"inputs": [],
					"name": "itemCount",
					"outputs": [
						{
							"internalType": "uint256",
							"name": "",
							"type": "uint256"
						}
					],
					"stateMutability": "view",
					"type": "function"
				},
				{
					"inputs": [
						{
							"internalType": "uint256",
							"name": "",
							"type": "uint256"
						}
					],
					"name": "items",
					"outputs": [
						{
							"internalType": "uint256",
							"name": "id",
							"type": "uint256"
						},
						{
							"internalType": "address payable",
							"name": "seller",
							"type": "address"
						},
						{
							"internalType": "string",
							"name": "name",
							"type": "string"
						},
						{
							"internalType": "uint256",
							"name": "price",
							"type": "uint256"
						},
						{
							"internalType": "bool",
							"name": "isSold",
							"type": "bool"
						}
					],
					"stateMutability": "view",
					"type": "function"
				},
				{
					"inputs": [
						{
							"internalType": "string",
							"name": "_name",
							"type": "string"
						},
						{
							"internalType": "uint256",
							"name": "_price",
							"type": "uint256"
						}
					],
					"name": "listitem",
					"outputs": [],
					"stateMutability": "nonpayable",
					"type": "function"
				}
			],
			"devdoc": {
				"kind": "dev",
				"methods": {},
				"version": 1
			},
			"evm": {
				"assembly": "    /* \"MarketPlace/MarketPlace.sol\":57:1368  contract MarketPlace{... */\n  mstore(0x40, 0x80)\n    /* \"MarketPlace/MarketPlace.sol\":248:249  0 */\n  0x00\n    /* \"MarketPlace/MarketPlace.sol\":223:249  uint256 public itemCount=0 */\n  dup1\n  sstore\n    /* \"MarketPlace/MarketPlace.sol\":57:1368  contract MarketPlace{... */\n  callvalue\n  dup1\n  iszero\n  tag_1\n  jumpi\n  0x00\n  dup1\n  revert\ntag_1:\n  pop\n  dataSize(sub_0)\n  dup1\n  dataOffset(sub_0)\n  0x00\n  codecopy\n  0x00\n  return\nstop\n\nsub_0: assembly {\n        /* \"MarketPlace/MarketPlace.sol\":57:1368  contract MarketPlace{... */\n      mstore(0x40, 0x80)\n      jumpi(tag_1, lt(calldatasize, 0x04))\n      shr(0xe0, calldataload(0x00))\n      dup1\n      0x0e17887b\n      eq\n      tag_2\n      jumpi\n      dup1\n      0x6bfb0d01\n      eq\n      tag_3\n      jumpi\n      dup1\n      0xbfb231d2\n      eq\n      tag_4\n      jumpi\n      dup1\n      0xe7fb74c7\n      eq\n      tag_5\n      jumpi\n    tag_1:\n      0x00\n      dup1\n      revert\n        /* \"MarketPlace/MarketPlace.sol\":502:862  function listitem(string memory _name,uint256 _price) external{... */\n    tag_2:\n      callvalue\n      dup1\n      iszero\n      tag_6\n      jumpi\n      0x00\n      dup1\n      revert\n    tag_6:\n      pop\n      tag_7\n      0x04\n      dup1\n      calldatasize\n      sub\n      dup2\n      add\n      swap1\n      tag_8\n      swap2\n      swap1\n      tag_9\n      jump\t// in\n    tag_8:\n      tag_10\n      jump\t// in\n    tag_7:\n      stop\n        /* \"MarketPlace/MarketPlace.sol\":223:249  uint256 public itemCount=0 */\n    tag_3:\n      callvalue\n      dup1\n      iszero\n      tag_11\n      jumpi\n      0x00\n      dup1\n      revert\n    tag_11:\n      pop\n      tag_12\n      tag_13\n      jump\t// in\n    tag_12:\n      mload(0x40)\n      tag_14\n      swap2\n      swap1\n      tag_15\n      jump\t// in\n    tag_14:\n      mload(0x40)\n      dup1\n      swap2\n      sub\n      swap1\n      return\n        /* \"MarketPlace/MarketPlace.sol\":255:291  mapping (uint256=>item) public items */\n    tag_4:\n      callvalue\n      dup1\n      iszero\n      tag_16\n      jumpi\n      0x00\n      dup1\n      revert\n    tag_16:\n      pop\n      tag_17\n      0x04\n      dup1\n      calldatasize\n      sub\n      dup2\n      add\n      swap1\n      tag_18\n      swap2\n      swap1\n      tag_19\n      jump\t// in\n    tag_18:\n      tag_20\n      jump\t// in\n    tag_17:\n      mload(0x40)\n      tag_21\n      swap6\n      swap5\n      swap4\n      swap3\n      swap2\n      swap1\n      tag_22\n      jump\t// in\n    tag_21:\n      mload(0x40)\n      dup1\n      swap2\n      sub\n      swap1\n      return\n        /* \"MarketPlace/MarketPlace.sol\":867:1366  function buyItem(uint256 _itemId)external payable{... */\n    tag_5:\n      tag_23\n      0x04\n      dup1\n      calldatasize\n      sub\n      dup2\n      add\n      swap1\n      tag_24\n      swap2\n      swap1\n      tag_19\n      jump\t// in\n    tag_24:\n      tag_25\n      jump\t// in\n    tag_23:\n      stop\n        /* \"MarketPlace/MarketPlace.sol\":502:862  function listitem(string memory _name,uint256 _price) external{... */\n    tag_10:\n        /* \"MarketPlace/MarketPlace.sol\":602:603  0 */\n      0x00\n        /* \"MarketPlace/MarketPlace.sol\":588:593  _name */\n      dup3\n        /* \"MarketPlace/MarketPlace.sol\":582:601  bytes(_name).length */\n      mload\n        /* \"MarketPlace/MarketPlace.sol\":582:603  bytes(_name).length>0 */\n      gt\n        /* \"MarketPlace/MarketPlace.sol\":574:628  require(bytes(_name).length>0,\"Item name is required\") */\n      tag_27\n      jumpi\n      mload(0x40)\n      0x08c379a000000000000000000000000000000000000000000000000000000000\n      dup2\n      mstore\n      0x04\n      add\n      tag_28\n      swap1\n      tag_29\n      jump\t// in\n    tag_28:\n      mload(0x40)\n      dup1\n      swap2\n      sub\n      swap1\n      revert\n    tag_27:\n        /* \"MarketPlace/MarketPlace.sol\":653:654  0 */\n      0x00\n        /* \"MarketPlace/MarketPlace.sol\":646:652  _price */\n      dup2\n        /* \"MarketPlace/MarketPlace.sol\":646:654  _price>0 */\n      gt\n        /* \"MarketPlace/MarketPlace.sol\":638:688  require(_price>0,\"Price should be greater than 0\") */\n      tag_30\n      jumpi\n      mload(0x40)\n      0x08c379a000000000000000000000000000000000000000000000000000000000\n      dup2\n      mstore\n      0x04\n      add\n      tag_31\n      swap1\n      tag_32\n      jump\t// in\n    tag_31:\n      mload(0x40)\n      dup1\n      swap2\n      sub\n      swap1\n      revert\n    tag_30:\n        /* \"MarketPlace/MarketPlace.sol\":699:708  itemCount */\n      0x00\n      dup1\n        /* \"MarketPlace/MarketPlace.sol\":699:710  itemCount++ */\n      dup2\n      sload\n      dup1\n      swap3\n      swap2\n      swap1\n      tag_33\n      swap1\n      tag_34\n      jump\t// in\n    tag_33:\n      swap2\n      swap1\n      pop\n      sstore\n      pop\n        /* \"MarketPlace/MarketPlace.sol\":737:791  item(itemCount,payable(msg.sender),_name,_price,false) */\n      mload(0x40)\n      dup1\n      0xa0\n      add\n      0x40\n      mstore\n      dup1\n        /* \"MarketPlace/MarketPlace.sol\":742:751  itemCount */\n      sload(0x00)\n        /* \"MarketPlace/MarketPlace.sol\":737:791  item(itemCount,payable(msg.sender),_name,_price,false) */\n      dup2\n      mstore\n      0x20\n      add\n        /* \"MarketPlace/MarketPlace.sol\":760:770  msg.sender */\n      caller\n        /* \"MarketPlace/MarketPlace.sol\":737:791  item(itemCount,payable(msg.sender),_name,_price,false) */\n      0xffffffffffffffffffffffffffffffffffffffff\n      and\n      dup2\n      mstore\n      0x20\n      add\n        /* \"MarketPlace/MarketPlace.sol\":772:777  _name */\n      dup4\n        /* \"MarketPlace/MarketPlace.sol\":737:791  item(itemCount,payable(msg.sender),_name,_price,false) */\n      dup2\n      mstore\n      0x20\n      add\n        /* \"MarketPlace/MarketPlace.sol\":778:784  _price */\n      dup3\n        /* \"MarketPlace/MarketPlace.sol\":737:791  item(itemCount,payable(msg.sender),_name,_price,false) */\n      dup2\n      mstore\n      0x20\n      add\n        /* \"MarketPlace/MarketPlace.sol\":785:790  false */\n      0x00\n        /* \"MarketPlace/MarketPlace.sol\":737:791  item(itemCount,payable(msg.sender),_name,_price,false) */\n      iszero\n      iszero\n      dup2\n      mstore\n      pop\n        /* \"MarketPlace/MarketPlace.sol\":720:725  items */\n      0x01\n        /* \"MarketPlace/MarketPlace.sol\":720:736  items[itemCount] */\n      0x00\n        /* \"MarketPlace/MarketPlace.sol\":726:735  itemCount */\n      dup1\n      sload\n        /* \"MarketPlace/MarketPlace.sol\":720:736  items[itemCount] */\n      dup2\n      mstore\n      0x20\n      add\n      swap1\n      dup2\n      mstore\n      0x20\n      add\n      0x00\n      keccak256\n        /* \"MarketPlace/MarketPlace.sol\":720:791  items[itemCount]=item(itemCount,payable(msg.sender),_name,_price,false) */\n      0x00\n      dup3\n      add\n      mload\n      dup2\n      0x00\n      add\n      sstore\n      0x20\n      dup3\n      add\n      mload\n      dup2\n      0x01\n      add\n      exp(0x0100, 0x00)\n      dup2\n      sload\n      dup2\n      0xffffffffffffffffffffffffffffffffffffffff\n      mul\n      not\n      and\n      swap1\n      dup4\n      0xffffffffffffffffffffffffffffffffffffffff\n      and\n      mul\n      or\n      swap1\n      sstore\n      pop\n      0x40\n      dup3\n      add\n      mload\n      dup2\n      0x02\n      add\n      swap1\n      dup2\n      tag_35\n      swap2\n      swap1\n      tag_36\n      jump\t// in\n    tag_35:\n      pop\n      0x60\n      dup3\n      add\n      mload\n      dup2\n      0x03\n      add\n      sstore\n      0x80\n      dup3\n      add\n      mload\n      dup2\n      0x04\n      add\n      exp(0x0100, 0x00)\n      dup2\n      sload\n      dup2\n      0xff\n      mul\n      not\n      and\n      swap1\n      dup4\n      iszero\n      iszero\n      mul\n      or\n      swap1\n      sstore\n      pop\n      swap1\n      pop\n      pop\n        /* \"MarketPlace/MarketPlace.sol\":829:839  msg.sender */\n      caller\n        /* \"MarketPlace/MarketPlace.sol\":807:855  itemListed(itemCount, msg.sender, _name, _price) */\n      0xffffffffffffffffffffffffffffffffffffffff\n      and\n        /* \"MarketPlace/MarketPlace.sol\":818:827  itemCount */\n      sload(0x00)\n        /* \"MarketPlace/MarketPlace.sol\":807:855  itemListed(itemCount, msg.sender, _name, _price) */\n      0xdb174402d29ac972ef2549a86d490b58fbe924b976baf8580ff0de417d4c5a53\n        /* \"MarketPlace/MarketPlace.sol\":841:846  _name */\n      dup5\n        /* \"MarketPlace/MarketPlace.sol\":848:854  _price */\n      dup5\n        /* \"MarketPlace/MarketPlace.sol\":807:855  itemListed(itemCount, msg.sender, _name, _price) */\n      mload(0x40)\n      tag_37\n      swap3\n      swap2\n      swap1\n      tag_38\n      jump\t// in\n    tag_37:\n      mload(0x40)\n      dup1\n      swap2\n      sub\n      swap1\n      log3\n        /* \"MarketPlace/MarketPlace.sol\":502:862  function listitem(string memory _name,uint256 _price) external{... */\n      pop\n      pop\n      jump\t// out\n        /* \"MarketPlace/MarketPlace.sol\":223:249  uint256 public itemCount=0 */\n    tag_13:\n      sload(0x00)\n      dup2\n      jump\t// out\n        /* \"MarketPlace/MarketPlace.sol\":255:291  mapping (uint256=>item) public items */\n    tag_20:\n      mstore(0x20, 0x01)\n      dup1\n      0x00\n      mstore\n      keccak256(0x00, 0x40)\n      0x00\n      swap2\n      pop\n      swap1\n      pop\n      dup1\n      0x00\n      add\n      sload\n      swap1\n      dup1\n      0x01\n      add\n      0x00\n      swap1\n      sload\n      swap1\n      0x0100\n      exp\n      swap1\n      div\n      0xffffffffffffffffffffffffffffffffffffffff\n      and\n      swap1\n      dup1\n      0x02\n      add\n      dup1\n      sload\n      tag_39\n      swap1\n      tag_40\n      jump\t// in\n    tag_39:\n      dup1\n      0x1f\n      add\n      0x20\n      dup1\n      swap2\n      div\n      mul\n      0x20\n      add\n      mload(0x40)\n      swap1\n      dup2\n      add\n      0x40\n      mstore\n      dup1\n      swap3\n      swap2\n      swap1\n      dup2\n      dup2\n      mstore\n      0x20\n      add\n      dup3\n      dup1\n      sload\n      tag_41\n      swap1\n      tag_40\n      jump\t// in\n    tag_41:\n      dup1\n      iszero\n      tag_42\n      jumpi\n      dup1\n      0x1f\n      lt\n      tag_43\n      jumpi\n      0x0100\n      dup1\n      dup4\n      sload\n      div\n      mul\n      dup4\n      mstore\n      swap2\n      0x20\n      add\n      swap2\n      jump(tag_42)\n    tag_43:\n      dup3\n      add\n      swap2\n      swap1\n      0x00\n      mstore\n      keccak256(0x00, 0x20)\n      swap1\n    tag_44:\n      dup2\n      sload\n      dup2\n      mstore\n      swap1\n      0x01\n      add\n      swap1\n      0x20\n      add\n      dup1\n      dup4\n      gt\n      tag_44\n      jumpi\n      dup3\n      swap1\n      sub\n      0x1f\n      and\n      dup3\n      add\n      swap2\n    tag_42:\n      pop\n      pop\n      pop\n      pop\n      pop\n      swap1\n      dup1\n      0x03\n      add\n      sload\n      swap1\n      dup1\n      0x04\n      add\n      0x00\n      swap1\n      sload\n      swap1\n      0x0100\n      exp\n      swap1\n      div\n      0xff\n      and\n      swap1\n      pop\n      dup6\n      jump\t// out\n        /* \"MarketPlace/MarketPlace.sol\":867:1366  function buyItem(uint256 _itemId)external payable{... */\n    tag_25:\n        /* \"MarketPlace/MarketPlace.sol\":926:943  item storage Item */\n      0x00\n        /* \"MarketPlace/MarketPlace.sol\":944:949  items */\n      0x01\n        /* \"MarketPlace/MarketPlace.sol\":944:958  items[_itemId] */\n      0x00\n        /* \"MarketPlace/MarketPlace.sol\":950:957  _itemId */\n      dup4\n        /* \"MarketPlace/MarketPlace.sol\":944:958  items[_itemId] */\n      dup2\n      mstore\n      0x20\n      add\n      swap1\n      dup2\n      mstore\n      0x20\n      add\n      0x00\n      keccak256\n        /* \"MarketPlace/MarketPlace.sol\":926:958  item storage Item=items[_itemId] */\n      swap1\n      pop\n        /* \"MarketPlace/MarketPlace.sol\":985:992  _itemId */\n      dup2\n        /* \"MarketPlace/MarketPlace.sol\":976:980  Item */\n      dup2\n        /* \"MarketPlace/MarketPlace.sol\":976:983  Item.id */\n      0x00\n      add\n      sload\n        /* \"MarketPlace/MarketPlace.sol\":976:992  Item.id==_itemId */\n      eq\n        /* \"MarketPlace/MarketPlace.sol\":968:1015  require(Item.id==_itemId,'item does not exist') */\n      tag_46\n      jumpi\n      mload(0x40)\n      0x08c379a000000000000000000000000000000000000000000000000000000000\n      dup2\n      mstore\n      0x04\n      add\n      tag_47\n      swap1\n      tag_48\n      jump\t// in\n    tag_47:\n      mload(0x40)\n      dup1\n      swap2\n      sub\n      swap1\n      revert\n    tag_46:\n        /* \"MarketPlace/MarketPlace.sol\":1044:1048  Item */\n      dup1\n        /* \"MarketPlace/MarketPlace.sol\":1044:1054  Item.price */\n      0x03\n      add\n      sload\n        /* \"MarketPlace/MarketPlace.sol\":1033:1042  msg.value */\n      callvalue\n        /* \"MarketPlace/MarketPlace.sol\":1033:1054  msg.value==Item.price */\n      eq\n        /* \"MarketPlace/MarketPlace.sol\":1025:1078  require(msg.value==Item.price,\"incorrect ether sent\") */\n      tag_49\n      jumpi\n      mload(0x40)\n      0x08c379a000000000000000000000000000000000000000000000000000000000\n      dup2\n      mstore\n      0x04\n      add\n      tag_50\n      swap1\n      tag_51\n      jump\t// in\n    tag_50:\n      mload(0x40)\n      dup1\n      swap2\n      sub\n      swap1\n      revert\n    tag_49:\n        /* \"MarketPlace/MarketPlace.sol\":1097:1101  Item */\n      dup1\n        /* \"MarketPlace/MarketPlace.sol\":1097:1108  Item.isSold */\n      0x04\n      add\n      0x00\n      swap1\n      sload\n      swap1\n      0x0100\n      exp\n      swap1\n      div\n      0xff\n      and\n        /* \"MarketPlace/MarketPlace.sol\":1096:1108  !Item.isSold */\n      iszero\n        /* \"MarketPlace/MarketPlace.sol\":1088:1132  require(!Item.isSold,\"item already soldout\") */\n      tag_52\n      jumpi\n      mload(0x40)\n      0x08c379a000000000000000000000000000000000000000000000000000000000\n      dup2\n      mstore\n      0x04\n      add\n      tag_53\n      swap1\n      tag_54\n      jump\t// in\n    tag_53:\n      mload(0x40)\n      dup1\n      swap2\n      sub\n      swap1\n      revert\n    tag_52:\n        /* \"MarketPlace/MarketPlace.sol\":1164:1168  Item */\n      dup1\n        /* \"MarketPlace/MarketPlace.sol\":1164:1175  Item.seller */\n      0x01\n      add\n      0x00\n      swap1\n      sload\n      swap1\n      0x0100\n      exp\n      swap1\n      div\n      0xffffffffffffffffffffffffffffffffffffffff\n      and\n        /* \"MarketPlace/MarketPlace.sol\":1150:1175  msg.sender != Item.seller */\n      0xffffffffffffffffffffffffffffffffffffffff\n      and\n        /* \"MarketPlace/MarketPlace.sol\":1150:1160  msg.sender */\n      caller\n        /* \"MarketPlace/MarketPlace.sol\":1150:1175  msg.sender != Item.seller */\n      0xffffffffffffffffffffffffffffffffffffffff\n      and\n      sub\n        /* \"MarketPlace/MarketPlace.sol\":1142:1211  require(msg.sender != Item.seller,\"seller cannot buy their own item\") */\n      tag_55\n      jumpi\n      mload(0x40)\n      0x08c379a000000000000000000000000000000000000000000000000000000000\n      dup2\n      mstore\n      0x04\n      add\n      tag_56\n      swap1\n      tag_57\n      jump\t// in\n    tag_56:\n      mload(0x40)\n      dup1\n      swap2\n      sub\n      swap1\n      revert\n    tag_55:\n        /* \"MarketPlace/MarketPlace.sol\":1234:1238  true */\n      0x01\n        /* \"MarketPlace/MarketPlace.sol\":1222:1226  Item */\n      dup2\n        /* \"MarketPlace/MarketPlace.sol\":1222:1233  Item.isSold */\n      0x04\n      add\n      0x00\n        /* \"MarketPlace/MarketPlace.sol\":1222:1238  Item.isSold=true */\n      0x0100\n      exp\n      dup2\n      sload\n      dup2\n      0xff\n      mul\n      not\n      and\n      swap1\n      dup4\n      iszero\n      iszero\n      mul\n      or\n      swap1\n      sstore\n      pop\n        /* \"MarketPlace/MarketPlace.sol\":1248:1252  Item */\n      dup1\n        /* \"MarketPlace/MarketPlace.sol\":1248:1259  Item.seller */\n      0x01\n      add\n      0x00\n      swap1\n      sload\n      swap1\n      0x0100\n      exp\n      swap1\n      div\n      0xffffffffffffffffffffffffffffffffffffffff\n      and\n        /* \"MarketPlace/MarketPlace.sol\":1248:1268  Item.seller.transfer */\n      0xffffffffffffffffffffffffffffffffffffffff\n      and\n        /* \"MarketPlace/MarketPlace.sol\":1248:1279  Item.seller.transfer(msg.value) */\n      0x08fc\n        /* \"MarketPlace/MarketPlace.sol\":1269:1278  msg.value */\n      callvalue\n        /* \"MarketPlace/MarketPlace.sol\":1248:1279  Item.seller.transfer(msg.value) */\n      swap1\n      dup2\n      iszero\n      mul\n      swap1\n      mload(0x40)\n      0x00\n      mload(0x40)\n      dup1\n      dup4\n      sub\n      dup2\n      dup6\n      dup9\n      dup9\n      call\n      swap4\n      pop\n      pop\n      pop\n      pop\n      iszero\n      dup1\n      iszero\n      tag_59\n      jumpi\n      returndatasize\n      0x00\n      dup1\n      returndatacopy\n      revert(0x00, returndatasize)\n    tag_59:\n      pop\n        /* \"MarketPlace/MarketPlace.sol\":1336:1340  Item */\n      dup1\n        /* \"MarketPlace/MarketPlace.sol\":1336:1347  Item.seller */\n      0x01\n      add\n      0x00\n      swap1\n      sload\n      swap1\n      0x0100\n      exp\n      swap1\n      div\n      0xffffffffffffffffffffffffffffffffffffffff\n      and\n        /* \"MarketPlace/MarketPlace.sol\":1303:1359  itemPurchased(_itemId,msg.sender,Item.seller,Item.price) */\n      0xffffffffffffffffffffffffffffffffffffffff\n      and\n        /* \"MarketPlace/MarketPlace.sol\":1325:1335  msg.sender */\n      caller\n        /* \"MarketPlace/MarketPlace.sol\":1303:1359  itemPurchased(_itemId,msg.sender,Item.seller,Item.price) */\n      0xffffffffffffffffffffffffffffffffffffffff\n      and\n        /* \"MarketPlace/MarketPlace.sol\":1317:1324  _itemId */\n      dup4\n        /* \"MarketPlace/MarketPlace.sol\":1303:1359  itemPurchased(_itemId,msg.sender,Item.seller,Item.price) */\n      0x29ae2cfd57568e7cbcc0d11cda1ceb179a63c64f951e147665951d60aa946a7b\n        /* \"MarketPlace/MarketPlace.sol\":1348:1352  Item */\n      dup5\n        /* \"MarketPlace/MarketPlace.sol\":1348:1358  Item.price */\n      0x03\n      add\n      sload\n        /* \"MarketPlace/MarketPlace.sol\":1303:1359  itemPurchased(_itemId,msg.sender,Item.seller,Item.price) */\n      mload(0x40)\n      tag_60\n      swap2\n      swap1\n      tag_15\n      jump\t// in\n    tag_60:\n      mload(0x40)\n      dup1\n      swap2\n      sub\n      swap1\n      log4\n        /* \"MarketPlace/MarketPlace.sol\":916:1366  {... */\n      pop\n        /* \"MarketPlace/MarketPlace.sol\":867:1366  function buyItem(uint256 _itemId)external payable{... */\n      pop\n      jump\t// out\n        /* \"#utility.yul\":7:82   */\n    tag_61:\n        /* \"#utility.yul\":40:46   */\n      0x00\n        /* \"#utility.yul\":73:75   */\n      0x40\n        /* \"#utility.yul\":67:76   */\n      mload\n        /* \"#utility.yul\":57:76   */\n      swap1\n      pop\n        /* \"#utility.yul\":7:82   */\n      swap1\n      jump\t// out\n        /* \"#utility.yul\":88:205   */\n    tag_62:\n        /* \"#utility.yul\":197:198   */\n      0x00\n        /* \"#utility.yul\":194:195   */\n      dup1\n        /* \"#utility.yul\":187:199   */\n      revert\n        /* \"#utility.yul\":211:328   */\n    tag_63:\n        /* \"#utility.yul\":320:321   */\n      0x00\n        /* \"#utility.yul\":317:318   */\n      dup1\n        /* \"#utility.yul\":310:322   */\n      revert\n        /* \"#utility.yul\":334:451   */\n    tag_64:\n        /* \"#utility.yul\":443:444   */\n      0x00\n        /* \"#utility.yul\":440:441   */\n      dup1\n        /* \"#utility.yul\":433:445   */\n      revert\n        /* \"#utility.yul\":457:574   */\n    tag_65:\n        /* \"#utility.yul\":566:567   */\n      0x00\n        /* \"#utility.yul\":563:564   */\n      dup1\n        /* \"#utility.yul\":556:568   */\n      revert\n        /* \"#utility.yul\":580:682   */\n    tag_66:\n        /* \"#utility.yul\":621:627   */\n      0x00\n        /* \"#utility.yul\":672:674   */\n      0x1f\n        /* \"#utility.yul\":668:675   */\n      not\n        /* \"#utility.yul\":663:665   */\n      0x1f\n        /* \"#utility.yul\":656:661   */\n      dup4\n        /* \"#utility.yul\":652:666   */\n      add\n        /* \"#utility.yul\":648:676   */\n      and\n        /* \"#utility.yul\":638:676   */\n      swap1\n      pop\n        /* \"#utility.yul\":580:682   */\n      swap2\n      swap1\n      pop\n      jump\t// out\n        /* \"#utility.yul\":688:868   */\n    tag_67:\n        /* \"#utility.yul\":736:813   */\n      0x4e487b7100000000000000000000000000000000000000000000000000000000\n        /* \"#utility.yul\":733:734   */\n      0x00\n        /* \"#utility.yul\":726:814   */\n      mstore\n        /* \"#utility.yul\":833:837   */\n      0x41\n        /* \"#utility.yul\":830:831   */\n      0x04\n        /* \"#utility.yul\":823:838   */\n      mstore\n        /* \"#utility.yul\":857:861   */\n      0x24\n        /* \"#utility.yul\":854:855   */\n      0x00\n        /* \"#utility.yul\":847:862   */\n      revert\n        /* \"#utility.yul\":874:1155   */\n    tag_68:\n        /* \"#utility.yul\":957:984   */\n      tag_125\n        /* \"#utility.yul\":979:983   */\n      dup3\n        /* \"#utility.yul\":957:984   */\n      tag_66\n      jump\t// in\n    tag_125:\n        /* \"#utility.yul\":949:955   */\n      dup2\n        /* \"#utility.yul\":945:985   */\n      add\n        /* \"#utility.yul\":1087:1093   */\n      dup2\n        /* \"#utility.yul\":1075:1085   */\n      dup2\n        /* \"#utility.yul\":1072:1094   */\n      lt\n        /* \"#utility.yul\":1051:1069   */\n      0xffffffffffffffff\n        /* \"#utility.yul\":1039:1049   */\n      dup3\n        /* \"#utility.yul\":1036:1070   */\n      gt\n        /* \"#utility.yul\":1033:1095   */\n      or\n        /* \"#utility.yul\":1030:1118   */\n      iszero\n      tag_126\n      jumpi\n        /* \"#utility.yul\":1098:1116   */\n      tag_127\n      tag_67\n      jump\t// in\n    tag_127:\n        /* \"#utility.yul\":1030:1118   */\n    tag_126:\n        /* \"#utility.yul\":1138:1148   */\n      dup1\n        /* \"#utility.yul\":1134:1136   */\n      0x40\n        /* \"#utility.yul\":1127:1149   */\n      mstore\n        /* \"#utility.yul\":917:1155   */\n      pop\n        /* \"#utility.yul\":874:1155   */\n      pop\n      pop\n      jump\t// out\n        /* \"#utility.yul\":1161:1290   */\n    tag_69:\n        /* \"#utility.yul\":1195:1201   */\n      0x00\n        /* \"#utility.yul\":1222:1242   */\n      tag_129\n      tag_61\n      jump\t// in\n    tag_129:\n        /* \"#utility.yul\":1212:1242   */\n      swap1\n      pop\n        /* \"#utility.yul\":1251:1284   */\n      tag_130\n        /* \"#utility.yul\":1279:1283   */\n      dup3\n        /* \"#utility.yul\":1271:1277   */\n      dup3\n        /* \"#utility.yul\":1251:1284   */\n      tag_68\n      jump\t// in\n    tag_130:\n        /* \"#utility.yul\":1161:1290   */\n      swap2\n      swap1\n      pop\n      jump\t// out\n        /* \"#utility.yul\":1296:1604   */\n    tag_70:\n        /* \"#utility.yul\":1358:1362   */\n      0x00\n        /* \"#utility.yul\":1448:1466   */\n      0xffffffffffffffff\n        /* \"#utility.yul\":1440:1446   */\n      dup3\n        /* \"#utility.yul\":1437:1467   */\n      gt\n        /* \"#utility.yul\":1434:1490   */\n      iszero\n      tag_132\n      jumpi\n        /* \"#utility.yul\":1470:1488   */\n      tag_133\n      tag_67\n      jump\t// in\n    tag_133:\n        /* \"#utility.yul\":1434:1490   */\n    tag_132:\n        /* \"#utility.yul\":1508:1537   */\n      tag_134\n        /* \"#utility.yul\":1530:1536   */\n      dup3\n        /* \"#utility.yul\":1508:1537   */\n      tag_66\n      jump\t// in\n    tag_134:\n        /* \"#utility.yul\":1500:1537   */\n      swap1\n      pop\n        /* \"#utility.yul\":1592:1596   */\n      0x20\n        /* \"#utility.yul\":1586:1590   */\n      dup2\n        /* \"#utility.yul\":1582:1597   */\n      add\n        /* \"#utility.yul\":1574:1597   */\n      swap1\n      pop\n        /* \"#utility.yul\":1296:1604   */\n      swap2\n      swap1\n      pop\n      jump\t// out\n        /* \"#utility.yul\":1610:1756   */\n    tag_71:\n        /* \"#utility.yul\":1707:1713   */\n      dup3\n        /* \"#utility.yul\":1702:1705   */\n      dup2\n        /* \"#utility.yul\":1697:1700   */\n      dup4\n        /* \"#utility.yul\":1684:1714   */\n      calldatacopy\n        /* \"#utility.yul\":1748:1749   */\n      0x00\n        /* \"#utility.yul\":1739:1745   */\n      dup4\n        /* \"#utility.yul\":1734:1737   */\n      dup4\n        /* \"#utility.yul\":1730:1746   */\n      add\n        /* \"#utility.yul\":1723:1750   */\n      mstore\n        /* \"#utility.yul\":1610:1756   */\n      pop\n      pop\n      pop\n      jump\t// out\n        /* \"#utility.yul\":1762:2187   */\n    tag_72:\n        /* \"#utility.yul\":1840:1845   */\n      0x00\n        /* \"#utility.yul\":1865:1931   */\n      tag_137\n        /* \"#utility.yul\":1881:1930   */\n      tag_138\n        /* \"#utility.yul\":1923:1929   */\n      dup5\n        /* \"#utility.yul\":1881:1930   */\n      tag_70\n      jump\t// in\n    tag_138:\n        /* \"#utility.yul\":1865:1931   */\n      tag_69\n      jump\t// in\n    tag_137:\n        /* \"#utility.yul\":1856:1931   */\n      swap1\n      pop\n        /* \"#utility.yul\":1954:1960   */\n      dup3\n        /* \"#utility.yul\":1947:1952   */\n      dup2\n        /* \"#utility.yul\":1940:1961   */\n      mstore\n        /* \"#utility.yul\":1992:1996   */\n      0x20\n        /* \"#utility.yul\":1985:1990   */\n      dup2\n        /* \"#utility.yul\":1981:1997   */\n      add\n        /* \"#utility.yul\":2030:2033   */\n      dup5\n        /* \"#utility.yul\":2021:2027   */\n      dup5\n        /* \"#utility.yul\":2016:2019   */\n      dup5\n        /* \"#utility.yul\":2012:2028   */\n      add\n        /* \"#utility.yul\":2009:2034   */\n      gt\n        /* \"#utility.yul\":2006:2118   */\n      iszero\n      tag_139\n      jumpi\n        /* \"#utility.yul\":2037:2116   */\n      tag_140\n      tag_65\n      jump\t// in\n    tag_140:\n        /* \"#utility.yul\":2006:2118   */\n    tag_139:\n        /* \"#utility.yul\":2127:2181   */\n      tag_141\n        /* \"#utility.yul\":2174:2180   */\n      dup5\n        /* \"#utility.yul\":2169:2172   */\n      dup3\n        /* \"#utility.yul\":2164:2167   */\n      dup6\n        /* \"#utility.yul\":2127:2181   */\n      tag_71\n      jump\t// in\n    tag_141:\n        /* \"#utility.yul\":1846:2187   */\n      pop\n        /* \"#utility.yul\":1762:2187   */\n      swap4\n      swap3\n      pop\n      pop\n      pop\n      jump\t// out\n        /* \"#utility.yul\":2207:2547   */\n    tag_73:\n        /* \"#utility.yul\":2263:2268   */\n      0x00\n        /* \"#utility.yul\":2312:2315   */\n      dup3\n        /* \"#utility.yul\":2305:2309   */\n      0x1f\n        /* \"#utility.yul\":2297:2303   */\n      dup4\n        /* \"#utility.yul\":2293:2310   */\n      add\n        /* \"#utility.yul\":2289:2316   */\n      slt\n        /* \"#utility.yul\":2279:2401   */\n      tag_143\n      jumpi\n        /* \"#utility.yul\":2320:2399   */\n      tag_144\n      tag_64\n      jump\t// in\n    tag_144:\n        /* \"#utility.yul\":2279:2401   */\n    tag_143:\n        /* \"#utility.yul\":2437:2443   */\n      dup2\n        /* \"#utility.yul\":2424:2444   */\n      calldataload\n        /* \"#utility.yul\":2462:2541   */\n      tag_145\n        /* \"#utility.yul\":2537:2540   */\n      dup5\n        /* \"#utility.yul\":2529:2535   */\n      dup3\n        /* \"#utility.yul\":2522:2526   */\n      0x20\n        /* \"#utility.yul\":2514:2520   */\n      dup7\n        /* \"#utility.yul\":2510:2527   */\n      add\n        /* \"#utility.yul\":2462:2541   */\n      tag_72\n      jump\t// in\n    tag_145:\n        /* \"#utility.yul\":2453:2541   */\n      swap2\n      pop\n        /* \"#utility.yul\":2269:2547   */\n      pop\n        /* \"#utility.yul\":2207:2547   */\n      swap3\n      swap2\n      pop\n      pop\n      jump\t// out\n        /* \"#utility.yul\":2553:2630   */\n    tag_74:\n        /* \"#utility.yul\":2590:2597   */\n      0x00\n        /* \"#utility.yul\":2619:2624   */\n      dup2\n        /* \"#utility.yul\":2608:2624   */\n      swap1\n      pop\n        /* \"#utility.yul\":2553:2630   */\n      swap2\n      swap1\n      pop\n      jump\t// out\n        /* \"#utility.yul\":2636:2758   */\n    tag_75:\n        /* \"#utility.yul\":2709:2733   */\n      tag_148\n        /* \"#utility.yul\":2727:2732   */\n      dup2\n        /* \"#utility.yul\":2709:2733   */\n      tag_74\n      jump\t// in\n    tag_148:\n        /* \"#utility.yul\":2702:2707   */\n      dup2\n        /* \"#utility.yul\":2699:2734   */\n      eq\n        /* \"#utility.yul\":2689:2752   */\n      tag_149\n      jumpi\n        /* \"#utility.yul\":2748:2749   */\n      0x00\n        /* \"#utility.yul\":2745:2746   */\n      dup1\n        /* \"#utility.yul\":2738:2750   */\n      revert\n        /* \"#utility.yul\":2689:2752   */\n    tag_149:\n        /* \"#utility.yul\":2636:2758   */\n      pop\n      jump\t// out\n        /* \"#utility.yul\":2764:2903   */\n    tag_76:\n        /* \"#utility.yul\":2810:2815   */\n      0x00\n        /* \"#utility.yul\":2848:2854   */\n      dup2\n        /* \"#utility.yul\":2835:2855   */\n      calldataload\n        /* \"#utility.yul\":2826:2855   */\n      swap1\n      pop\n        /* \"#utility.yul\":2864:2897   */\n      tag_151\n        /* \"#utility.yul\":2891:2896   */\n      dup2\n        /* \"#utility.yul\":2864:2897   */\n      tag_75\n      jump\t// in\n    tag_151:\n        /* \"#utility.yul\":2764:2903   */\n      swap3\n      swap2\n      pop\n      pop\n      jump\t// out\n        /* \"#utility.yul\":2909:3563   */\n    tag_9:\n        /* \"#utility.yul\":2987:2993   */\n      0x00\n        /* \"#utility.yul\":2995:3001   */\n      dup1\n        /* \"#utility.yul\":3044:3046   */\n      0x40\n        /* \"#utility.yul\":3032:3041   */\n      dup4\n        /* \"#utility.yul\":3023:3030   */\n      dup6\n        /* \"#utility.yul\":3019:3042   */\n      sub\n        /* \"#utility.yul\":3015:3047   */\n      slt\n        /* \"#utility.yul\":3012:3131   */\n      iszero\n      tag_153\n      jumpi\n        /* \"#utility.yul\":3050:3129   */\n      tag_154\n      tag_62\n      jump\t// in\n    tag_154:\n        /* \"#utility.yul\":3012:3131   */\n    tag_153:\n        /* \"#utility.yul\":3198:3199   */\n      0x00\n        /* \"#utility.yul\":3187:3196   */\n      dup4\n        /* \"#utility.yul\":3183:3200   */\n      add\n        /* \"#utility.yul\":3170:3201   */\n      calldataload\n        /* \"#utility.yul\":3228:3246   */\n      0xffffffffffffffff\n        /* \"#utility.yul\":3220:3226   */\n      dup2\n        /* \"#utility.yul\":3217:3247   */\n      gt\n        /* \"#utility.yul\":3214:3331   */\n      iszero\n      tag_155\n      jumpi\n        /* \"#utility.yul\":3250:3329   */\n      tag_156\n      tag_63\n      jump\t// in\n    tag_156:\n        /* \"#utility.yul\":3214:3331   */\n    tag_155:\n        /* \"#utility.yul\":3355:3418   */\n      tag_157\n        /* \"#utility.yul\":3410:3417   */\n      dup6\n        /* \"#utility.yul\":3401:3407   */\n      dup3\n        /* \"#utility.yul\":3390:3399   */\n      dup7\n        /* \"#utility.yul\":3386:3408   */\n      add\n        /* \"#utility.yul\":3355:3418   */\n      tag_73\n      jump\t// in\n    tag_157:\n        /* \"#utility.yul\":3345:3418   */\n      swap3\n      pop\n        /* \"#utility.yul\":3141:3428   */\n      pop\n        /* \"#utility.yul\":3467:3469   */\n      0x20\n        /* \"#utility.yul\":3493:3546   */\n      tag_158\n        /* \"#utility.yul\":3538:3545   */\n      dup6\n        /* \"#utility.yul\":3529:3535   */\n      dup3\n        /* \"#utility.yul\":3518:3527   */\n      dup7\n        /* \"#utility.yul\":3514:3536   */\n      add\n        /* \"#utility.yul\":3493:3546   */\n      tag_76\n      jump\t// in\n    tag_158:\n        /* \"#utility.yul\":3483:3546   */\n      swap2\n      pop\n        /* \"#utility.yul\":3438:3556   */\n      pop\n        /* \"#utility.yul\":2909:3563   */\n      swap3\n      pop\n      swap3\n      swap1\n      pop\n      jump\t// out\n        /* \"#utility.yul\":3569:3687   */\n    tag_77:\n        /* \"#utility.yul\":3656:3680   */\n      tag_160\n        /* \"#utility.yul\":3674:3679   */\n      dup2\n        /* \"#utility.yul\":3656:3680   */\n      tag_74\n      jump\t// in\n    tag_160:\n        /* \"#utility.yul\":3651:3654   */\n      dup3\n        /* \"#utility.yul\":3644:3681   */\n      mstore\n        /* \"#utility.yul\":3569:3687   */\n      pop\n      pop\n      jump\t// out\n        /* \"#utility.yul\":3693:3915   */\n    tag_15:\n        /* \"#utility.yul\":3786:3790   */\n      0x00\n        /* \"#utility.yul\":3824:3826   */\n      0x20\n        /* \"#utility.yul\":3813:3822   */\n      dup3\n        /* \"#utility.yul\":3809:3827   */\n      add\n        /* \"#utility.yul\":3801:3827   */\n      swap1\n      pop\n        /* \"#utility.yul\":3837:3908   */\n      tag_162\n        /* \"#utility.yul\":3905:3906   */\n      0x00\n        /* \"#utility.yul\":3894:3903   */\n      dup4\n        /* \"#utility.yul\":3890:3907   */\n      add\n        /* \"#utility.yul\":3881:3887   */\n      dup5\n        /* \"#utility.yul\":3837:3908   */\n      tag_77\n      jump\t// in\n    tag_162:\n        /* \"#utility.yul\":3693:3915   */\n      swap3\n      swap2\n      pop\n      pop\n      jump\t// out\n        /* \"#utility.yul\":3921:4250   */\n    tag_19:\n        /* \"#utility.yul\":3980:3986   */\n      0x00\n        /* \"#utility.yul\":4029:4031   */\n      0x20\n        /* \"#utility.yul\":4017:4026   */\n      dup3\n        /* \"#utility.yul\":4008:4015   */\n      dup5\n        /* \"#utility.yul\":4004:4027   */\n      sub\n        /* \"#utility.yul\":4000:4032   */\n      slt\n        /* \"#utility.yul\":3997:4116   */\n      iszero\n      tag_164\n      jumpi\n        /* \"#utility.yul\":4035:4114   */\n      tag_165\n      tag_62\n      jump\t// in\n    tag_165:\n        /* \"#utility.yul\":3997:4116   */\n    tag_164:\n        /* \"#utility.yul\":4155:4156   */\n      0x00\n        /* \"#utility.yul\":4180:4233   */\n      tag_166\n        /* \"#utility.yul\":4225:4232   */\n      dup5\n        /* \"#utility.yul\":4216:4222   */\n      dup3\n        /* \"#utility.yul\":4205:4214   */\n      dup6\n        /* \"#utility.yul\":4201:4223   */\n      add\n        /* \"#utility.yul\":4180:4233   */\n      tag_76\n      jump\t// in\n    tag_166:\n        /* \"#utility.yul\":4170:4233   */\n      swap2\n      pop\n        /* \"#utility.yul\":4126:4243   */\n      pop\n        /* \"#utility.yul\":3921:4250   */\n      swap3\n      swap2\n      pop\n      pop\n      jump\t// out\n        /* \"#utility.yul\":4256:4382   */\n    tag_78:\n        /* \"#utility.yul\":4293:4300   */\n      0x00\n        /* \"#utility.yul\":4333:4375   */\n      0xffffffffffffffffffffffffffffffffffffffff\n        /* \"#utility.yul\":4326:4331   */\n      dup3\n        /* \"#utility.yul\":4322:4376   */\n      and\n        /* \"#utility.yul\":4311:4376   */\n      swap1\n      pop\n        /* \"#utility.yul\":4256:4382   */\n      swap2\n      swap1\n      pop\n      jump\t// out\n        /* \"#utility.yul\":4388:4492   */\n    tag_79:\n        /* \"#utility.yul\":4433:4440   */\n      0x00\n        /* \"#utility.yul\":4462:4486   */\n      tag_169\n        /* \"#utility.yul\":4480:4485   */\n      dup3\n        /* \"#utility.yul\":4462:4486   */\n      tag_78\n      jump\t// in\n    tag_169:\n        /* \"#utility.yul\":4451:4486   */\n      swap1\n      pop\n        /* \"#utility.yul\":4388:4492   */\n      swap2\n      swap1\n      pop\n      jump\t// out\n        /* \"#utility.yul\":4498:4640   */\n    tag_80:\n        /* \"#utility.yul\":4601:4633   */\n      tag_171\n        /* \"#utility.yul\":4627:4632   */\n      dup2\n        /* \"#utility.yul\":4601:4633   */\n      tag_79\n      jump\t// in\n    tag_171:\n        /* \"#utility.yul\":4596:4599   */\n      dup3\n        /* \"#utility.yul\":4589:4634   */\n      mstore\n        /* \"#utility.yul\":4498:4640   */\n      pop\n      pop\n      jump\t// out\n        /* \"#utility.yul\":4646:4745   */\n    tag_81:\n        /* \"#utility.yul\":4698:4704   */\n      0x00\n        /* \"#utility.yul\":4732:4737   */\n      dup2\n        /* \"#utility.yul\":4726:4738   */\n      mload\n        /* \"#utility.yul\":4716:4738   */\n      swap1\n      pop\n        /* \"#utility.yul\":4646:4745   */\n      swap2\n      swap1\n      pop\n      jump\t// out\n        /* \"#utility.yul\":4751:4920   */\n    tag_82:\n        /* \"#utility.yul\":4835:4846   */\n      0x00\n        /* \"#utility.yul\":4869:4875   */\n      dup3\n        /* \"#utility.yul\":4864:4867   */\n      dup3\n        /* \"#utility.yul\":4857:4876   */\n      mstore\n        /* \"#utility.yul\":4909:4913   */\n      0x20\n        /* \"#utility.yul\":4904:4907   */\n      dup3\n        /* \"#utility.yul\":4900:4914   */\n      add\n        /* \"#utility.yul\":4885:4914   */\n      swap1\n      pop\n        /* \"#utility.yul\":4751:4920   */\n      swap3\n      swap2\n      pop\n      pop\n      jump\t// out\n        /* \"#utility.yul\":4926:5172   */\n    tag_83:\n        /* \"#utility.yul\":5007:5008   */\n      0x00\n        /* \"#utility.yul\":5017:5130   */\n    tag_175:\n        /* \"#utility.yul\":5031:5037   */\n      dup4\n        /* \"#utility.yul\":5028:5029   */\n      dup2\n        /* \"#utility.yul\":5025:5038   */\n      lt\n        /* \"#utility.yul\":5017:5130   */\n      iszero\n      tag_177\n      jumpi\n        /* \"#utility.yul\":5116:5117   */\n      dup1\n        /* \"#utility.yul\":5111:5114   */\n      dup3\n        /* \"#utility.yul\":5107:5118   */\n      add\n        /* \"#utility.yul\":5101:5119   */\n      mload\n        /* \"#utility.yul\":5097:5098   */\n      dup2\n        /* \"#utility.yul\":5092:5095   */\n      dup5\n        /* \"#utility.yul\":5088:5099   */\n      add\n        /* \"#utility.yul\":5081:5120   */\n      mstore\n        /* \"#utility.yul\":5053:5055   */\n      0x20\n        /* \"#utility.yul\":5050:5051   */\n      dup2\n        /* \"#utility.yul\":5046:5056   */\n      add\n        /* \"#utility.yul\":5041:5056   */\n      swap1\n      pop\n        /* \"#utility.yul\":5017:5130   */\n      jump(tag_175)\n    tag_177:\n        /* \"#utility.yul\":5164:5165   */\n      0x00\n        /* \"#utility.yul\":5155:5161   */\n      dup5\n        /* \"#utility.yul\":5150:5153   */\n      dup5\n        /* \"#utility.yul\":5146:5162   */\n      add\n        /* \"#utility.yul\":5139:5166   */\n      mstore\n        /* \"#utility.yul\":4988:5172   */\n      pop\n        /* \"#utility.yul\":4926:5172   */\n      pop\n      pop\n      pop\n      jump\t// out\n        /* \"#utility.yul\":5178:5555   */\n    tag_84:\n        /* \"#utility.yul\":5266:5269   */\n      0x00\n        /* \"#utility.yul\":5294:5333   */\n      tag_179\n        /* \"#utility.yul\":5327:5332   */\n      dup3\n        /* \"#utility.yul\":5294:5333   */\n      tag_81\n      jump\t// in\n    tag_179:\n        /* \"#utility.yul\":5349:5420   */\n      tag_180\n        /* \"#utility.yul\":5413:5419   */\n      dup2\n        /* \"#utility.yul\":5408:5411   */\n      dup6\n        /* \"#utility.yul\":5349:5420   */\n      tag_82\n      jump\t// in\n    tag_180:\n        /* \"#utility.yul\":5342:5420   */\n      swap4\n      pop\n        /* \"#utility.yul\":5429:5494   */\n      tag_181\n        /* \"#utility.yul\":5487:5493   */\n      dup2\n        /* \"#utility.yul\":5482:5485   */\n      dup6\n        /* \"#utility.yul\":5475:5479   */\n      0x20\n        /* \"#utility.yul\":5468:5473   */\n      dup7\n        /* \"#utility.yul\":5464:5480   */\n      add\n        /* \"#utility.yul\":5429:5494   */\n      tag_83\n      jump\t// in\n    tag_181:\n        /* \"#utility.yul\":5519:5548   */\n      tag_182\n        /* \"#utility.yul\":5541:5547   */\n      dup2\n        /* \"#utility.yul\":5519:5548   */\n      tag_66\n      jump\t// in\n    tag_182:\n        /* \"#utility.yul\":5514:5517   */\n      dup5\n        /* \"#utility.yul\":5510:5549   */\n      add\n        /* \"#utility.yul\":5503:5549   */\n      swap2\n      pop\n        /* \"#utility.yul\":5270:5555   */\n      pop\n        /* \"#utility.yul\":5178:5555   */\n      swap3\n      swap2\n      pop\n      pop\n      jump\t// out\n        /* \"#utility.yul\":5561:5651   */\n    tag_85:\n        /* \"#utility.yul\":5595:5602   */\n      0x00\n        /* \"#utility.yul\":5638:5643   */\n      dup2\n        /* \"#utility.yul\":5631:5644   */\n      iszero\n        /* \"#utility.yul\":5624:5645   */\n      iszero\n        /* \"#utility.yul\":5613:5645   */\n      swap1\n      pop\n        /* \"#utility.yul\":5561:5651   */\n      swap2\n      swap1\n      pop\n      jump\t// out\n        /* \"#utility.yul\":5657:5766   */\n    tag_86:\n        /* \"#utility.yul\":5738:5759   */\n      tag_185\n        /* \"#utility.yul\":5753:5758   */\n      dup2\n        /* \"#utility.yul\":5738:5759   */\n      tag_85\n      jump\t// in\n    tag_185:\n        /* \"#utility.yul\":5733:5736   */\n      dup3\n        /* \"#utility.yul\":5726:5760   */\n      mstore\n        /* \"#utility.yul\":5657:5766   */\n      pop\n      pop\n      jump\t// out\n        /* \"#utility.yul\":5772:6547   */\n    tag_22:\n        /* \"#utility.yul\":6007:6011   */\n      0x00\n        /* \"#utility.yul\":6045:6048   */\n      0xa0\n        /* \"#utility.yul\":6034:6043   */\n      dup3\n        /* \"#utility.yul\":6030:6049   */\n      add\n        /* \"#utility.yul\":6022:6049   */\n      swap1\n      pop\n        /* \"#utility.yul\":6059:6130   */\n      tag_187\n        /* \"#utility.yul\":6127:6128   */\n      0x00\n        /* \"#utility.yul\":6116:6125   */\n      dup4\n        /* \"#utility.yul\":6112:6129   */\n      add\n        /* \"#utility.yul\":6103:6109   */\n      dup9\n        /* \"#utility.yul\":6059:6130   */\n      tag_77\n      jump\t// in\n    tag_187:\n        /* \"#utility.yul\":6140:6228   */\n      tag_188\n        /* \"#utility.yul\":6224:6226   */\n      0x20\n        /* \"#utility.yul\":6213:6222   */\n      dup4\n        /* \"#utility.yul\":6209:6227   */\n      add\n        /* \"#utility.yul\":6200:6206   */\n      dup8\n        /* \"#utility.yul\":6140:6228   */\n      tag_80\n      jump\t// in\n    tag_188:\n        /* \"#utility.yul\":6275:6284   */\n      dup2\n        /* \"#utility.yul\":6269:6273   */\n      dup2\n        /* \"#utility.yul\":6265:6285   */\n      sub\n        /* \"#utility.yul\":6260:6262   */\n      0x40\n        /* \"#utility.yul\":6249:6258   */\n      dup4\n        /* \"#utility.yul\":6245:6263   */\n      add\n        /* \"#utility.yul\":6238:6286   */\n      mstore\n        /* \"#utility.yul\":6303:6381   */\n      tag_189\n        /* \"#utility.yul\":6376:6380   */\n      dup2\n        /* \"#utility.yul\":6367:6373   */\n      dup7\n        /* \"#utility.yul\":6303:6381   */\n      tag_84\n      jump\t// in\n    tag_189:\n        /* \"#utility.yul\":6295:6381   */\n      swap1\n      pop\n        /* \"#utility.yul\":6391:6463   */\n      tag_190\n        /* \"#utility.yul\":6459:6461   */\n      0x60\n        /* \"#utility.yul\":6448:6457   */\n      dup4\n        /* \"#utility.yul\":6444:6462   */\n      add\n        /* \"#utility.yul\":6435:6441   */\n      dup6\n        /* \"#utility.yul\":6391:6463   */\n      tag_77\n      jump\t// in\n    tag_190:\n        /* \"#utility.yul\":6473:6540   */\n      tag_191\n        /* \"#utility.yul\":6535:6538   */\n      0x80\n        /* \"#utility.yul\":6524:6533   */\n      dup4\n        /* \"#utility.yul\":6520:6539   */\n      add\n        /* \"#utility.yul\":6511:6517   */\n      dup5\n        /* \"#utility.yul\":6473:6540   */\n      tag_86\n      jump\t// in\n    tag_191:\n        /* \"#utility.yul\":5772:6547   */\n      swap7\n      swap6\n      pop\n      pop\n      pop\n      pop\n      pop\n      pop\n      jump\t// out\n        /* \"#utility.yul\":6553:6724   */\n    tag_87:\n        /* \"#utility.yul\":6693:6716   */\n      0x4974656d206e616d652069732072657175697265640000000000000000000000\n        /* \"#utility.yul\":6689:6690   */\n      0x00\n        /* \"#utility.yul\":6681:6687   */\n      dup3\n        /* \"#utility.yul\":6677:6691   */\n      add\n        /* \"#utility.yul\":6670:6717   */\n      mstore\n        /* \"#utility.yul\":6553:6724   */\n      pop\n      jump\t// out\n        /* \"#utility.yul\":6730:7096   */\n    tag_88:\n        /* \"#utility.yul\":6872:6875   */\n      0x00\n        /* \"#utility.yul\":6893:6960   */\n      tag_194\n        /* \"#utility.yul\":6957:6959   */\n      0x15\n        /* \"#utility.yul\":6952:6955   */\n      dup4\n        /* \"#utility.yul\":6893:6960   */\n      tag_82\n      jump\t// in\n    tag_194:\n        /* \"#utility.yul\":6886:6960   */\n      swap2\n      pop\n        /* \"#utility.yul\":6969:7062   */\n      tag_195\n        /* \"#utility.yul\":7058:7061   */\n      dup3\n        /* \"#utility.yul\":6969:7062   */\n      tag_87\n      jump\t// in\n    tag_195:\n        /* \"#utility.yul\":7087:7089   */\n      0x20\n        /* \"#utility.yul\":7082:7085   */\n      dup3\n        /* \"#utility.yul\":7078:7090   */\n      add\n        /* \"#utility.yul\":7071:7090   */\n      swap1\n      pop\n        /* \"#utility.yul\":6730:7096   */\n      swap2\n      swap1\n      pop\n      jump\t// out\n        /* \"#utility.yul\":7102:7521   */\n    tag_29:\n        /* \"#utility.yul\":7268:7272   */\n      0x00\n        /* \"#utility.yul\":7306:7308   */\n      0x20\n        /* \"#utility.yul\":7295:7304   */\n      dup3\n        /* \"#utility.yul\":7291:7309   */\n      add\n        /* \"#utility.yul\":7283:7309   */\n      swap1\n      pop\n        /* \"#utility.yul\":7355:7364   */\n      dup2\n        /* \"#utility.yul\":7349:7353   */\n      dup2\n        /* \"#utility.yul\":7345:7365   */\n      sub\n        /* \"#utility.yul\":7341:7342   */\n      0x00\n        /* \"#utility.yul\":7330:7339   */\n      dup4\n        /* \"#utility.yul\":7326:7343   */\n      add\n        /* \"#utility.yul\":7319:7366   */\n      mstore\n        /* \"#utility.yul\":7383:7514   */\n      tag_197\n        /* \"#utility.yul\":7509:7513   */\n      dup2\n        /* \"#utility.yul\":7383:7514   */\n      tag_88\n      jump\t// in\n    tag_197:\n        /* \"#utility.yul\":7375:7514   */\n      swap1\n      pop\n        /* \"#utility.yul\":7102:7521   */\n      swap2\n      swap1\n      pop\n      jump\t// out\n        /* \"#utility.yul\":7527:7707   */\n    tag_89:\n        /* \"#utility.yul\":7667:7699   */\n      0x50726963652073686f756c642062652067726561746572207468616e20300000\n        /* \"#utility.yul\":7663:7664   */\n      0x00\n        /* \"#utility.yul\":7655:7661   */\n      dup3\n        /* \"#utility.yul\":7651:7665   */\n      add\n        /* \"#utility.yul\":7644:7700   */\n      mstore\n        /* \"#utility.yul\":7527:7707   */\n      pop\n      jump\t// out\n        /* \"#utility.yul\":7713:8079   */\n    tag_90:\n        /* \"#utility.yul\":7855:7858   */\n      0x00\n        /* \"#utility.yul\":7876:7943   */\n      tag_200\n        /* \"#utility.yul\":7940:7942   */\n      0x1e\n        /* \"#utility.yul\":7935:7938   */\n      dup4\n        /* \"#utility.yul\":7876:7943   */\n      tag_82\n      jump\t// in\n    tag_200:\n        /* \"#utility.yul\":7869:7943   */\n      swap2\n      pop\n        /* \"#utility.yul\":7952:8045   */\n      tag_201\n        /* \"#utility.yul\":8041:8044   */\n      dup3\n        /* \"#utility.yul\":7952:8045   */\n      tag_89\n      jump\t// in\n    tag_201:\n        /* \"#utility.yul\":8070:8072   */\n      0x20\n        /* \"#utility.yul\":8065:8068   */\n      dup3\n        /* \"#utility.yul\":8061:8073   */\n      add\n        /* \"#utility.yul\":8054:8073   */\n      swap1\n      pop\n        /* \"#utility.yul\":7713:8079   */\n      swap2\n      swap1\n      pop\n      jump\t// out\n        /* \"#utility.yul\":8085:8504   */\n    tag_32:\n        /* \"#utility.yul\":8251:8255   */\n      0x00\n        /* \"#utility.yul\":8289:8291   */\n      0x20\n        /* \"#utility.yul\":8278:8287   */\n      dup3\n        /* \"#utility.yul\":8274:8292   */\n      add\n        /* \"#utility.yul\":8266:8292   */\n      swap1\n      pop\n        /* \"#utility.yul\":8338:8347   */\n      dup2\n        /* \"#utility.yul\":8332:8336   */\n      dup2\n        /* \"#utility.yul\":8328:8348   */\n      sub\n        /* \"#utility.yul\":8324:8325   */\n      0x00\n        /* \"#utility.yul\":8313:8322   */\n      dup4\n        /* \"#utility.yul\":8309:8326   */\n      add\n        /* \"#utility.yul\":8302:8349   */\n      mstore\n        /* \"#utility.yul\":8366:8497   */\n      tag_203\n        /* \"#utility.yul\":8492:8496   */\n      dup2\n        /* \"#utility.yul\":8366:8497   */\n      tag_90\n      jump\t// in\n    tag_203:\n        /* \"#utility.yul\":8358:8497   */\n      swap1\n      pop\n        /* \"#utility.yul\":8085:8504   */\n      swap2\n      swap1\n      pop\n      jump\t// out\n        /* \"#utility.yul\":8510:8690   */\n    tag_91:\n        /* \"#utility.yul\":8558:8635   */\n      0x4e487b7100000000000000000000000000000000000000000000000000000000\n        /* \"#utility.yul\":8555:8556   */\n      0x00\n        /* \"#utility.yul\":8548:8636   */\n      mstore\n        /* \"#utility.yul\":8655:8659   */\n      0x11\n        /* \"#utility.yul\":8652:8653   */\n      0x04\n        /* \"#utility.yul\":8645:8660   */\n      mstore\n        /* \"#utility.yul\":8679:8683   */\n      0x24\n        /* \"#utility.yul\":8676:8677   */\n      0x00\n        /* \"#utility.yul\":8669:8684   */\n      revert\n        /* \"#utility.yul\":8696:8929   */\n    tag_34:\n        /* \"#utility.yul\":8735:8738   */\n      0x00\n        /* \"#utility.yul\":8758:8782   */\n      tag_206\n        /* \"#utility.yul\":8776:8781   */\n      dup3\n        /* \"#utility.yul\":8758:8782   */\n      tag_74\n      jump\t// in\n    tag_206:\n        /* \"#utility.yul\":8749:8782   */\n      swap2\n      pop\n        /* \"#utility.yul\":8804:8870   */\n      0xffffffffffffffffffffffffffffffffffffffffffffffffffffffffffffffff\n        /* \"#utility.yul\":8797:8802   */\n      dup3\n        /* \"#utility.yul\":8794:8871   */\n      sub\n        /* \"#utility.yul\":8791:8894   */\n      tag_207\n      jumpi\n        /* \"#utility.yul\":8874:8892   */\n      tag_208\n      tag_91\n      jump\t// in\n    tag_208:\n        /* \"#utility.yul\":8791:8894   */\n    tag_207:\n        /* \"#utility.yul\":8921:8922   */\n      0x01\n        /* \"#utility.yul\":8914:8919   */\n      dup3\n        /* \"#utility.yul\":8910:8923   */\n      add\n        /* \"#utility.yul\":8903:8923   */\n      swap1\n      pop\n        /* \"#utility.yul\":8696:8929   */\n      swap2\n      swap1\n      pop\n      jump\t// out\n        /* \"#utility.yul\":8935:9115   */\n    tag_92:\n        /* \"#utility.yul\":8983:9060   */\n      0x4e487b7100000000000000000000000000000000000000000000000000000000\n        /* \"#utility.yul\":8980:8981   */\n      0x00\n        /* \"#utility.yul\":8973:9061   */\n      mstore\n        /* \"#utility.yul\":9080:9084   */\n      0x22\n        /* \"#utility.yul\":9077:9078   */\n      0x04\n        /* \"#utility.yul\":9070:9085   */\n      mstore\n        /* \"#utility.yul\":9104:9108   */\n      0x24\n        /* \"#utility.yul\":9101:9102   */\n      0x00\n        /* \"#utility.yul\":9094:9109   */\n      revert\n        /* \"#utility.yul\":9121:9441   */\n    tag_40:\n        /* \"#utility.yul\":9165:9171   */\n      0x00\n        /* \"#utility.yul\":9202:9203   */\n      0x02\n        /* \"#utility.yul\":9196:9200   */\n      dup3\n        /* \"#utility.yul\":9192:9204   */\n      div\n        /* \"#utility.yul\":9182:9204   */\n      swap1\n      pop\n        /* \"#utility.yul\":9249:9250   */\n      0x01\n        /* \"#utility.yul\":9243:9247   */\n      dup3\n        /* \"#utility.yul\":9239:9251   */\n      and\n        /* \"#utility.yul\":9270:9288   */\n      dup1\n        /* \"#utility.yul\":9260:9341   */\n      tag_211\n      jumpi\n        /* \"#utility.yul\":9326:9330   */\n      0x7f\n        /* \"#utility.yul\":9318:9324   */\n      dup3\n        /* \"#utility.yul\":9314:9331   */\n      and\n        /* \"#utility.yul\":9304:9331   */\n      swap2\n      pop\n        /* \"#utility.yul\":9260:9341   */\n    tag_211:\n        /* \"#utility.yul\":9388:9390   */\n      0x20\n        /* \"#utility.yul\":9380:9386   */\n      dup3\n        /* \"#utility.yul\":9377:9391   */\n      lt\n        /* \"#utility.yul\":9357:9375   */\n      dup2\n        /* \"#utility.yul\":9354:9392   */\n      sub\n        /* \"#utility.yul\":9351:9435   */\n      tag_212\n      jumpi\n        /* \"#utility.yul\":9407:9425   */\n      tag_213\n      tag_92\n      jump\t// in\n    tag_213:\n        /* \"#utility.yul\":9351:9435   */\n    tag_212:\n        /* \"#utility.yul\":9172:9441   */\n      pop\n        /* \"#utility.yul\":9121:9441   */\n      swap2\n      swap1\n      pop\n      jump\t// out\n        /* \"#utility.yul\":9447:9588   */\n    tag_93:\n        /* \"#utility.yul\":9496:9500   */\n      0x00\n        /* \"#utility.yul\":9519:9522   */\n      dup2\n        /* \"#utility.yul\":9511:9522   */\n      swap1\n      pop\n        /* \"#utility.yul\":9542:9545   */\n      dup2\n        /* \"#utility.yul\":9539:9540   */\n      0x00\n        /* \"#utility.yul\":9532:9546   */\n      mstore\n        /* \"#utility.yul\":9576:9580   */\n      0x20\n        /* \"#utility.yul\":9573:9574   */\n      0x00\n        /* \"#utility.yul\":9563:9581   */\n      keccak256\n        /* \"#utility.yul\":9555:9581   */\n      swap1\n      pop\n        /* \"#utility.yul\":9447:9588   */\n      swap2\n      swap1\n      pop\n      jump\t// out\n        /* \"#utility.yul\":9594:9687   */\n    tag_94:\n        /* \"#utility.yul\":9631:9637   */\n      0x00\n        /* \"#utility.yul\":9678:9680   */\n      0x20\n        /* \"#utility.yul\":9673:9675   */\n      0x1f\n        /* \"#utility.yul\":9666:9671   */\n      dup4\n        /* \"#utility.yul\":9662:9676   */\n      add\n        /* \"#utility.yul\":9658:9681   */\n      div\n        /* \"#utility.yul\":9648:9681   */\n      swap1\n      pop\n        /* \"#utility.yul\":9594:9687   */\n      swap2\n      swap1\n      pop\n      jump\t// out\n        /* \"#utility.yul\":9693:9800   */\n    tag_95:\n        /* \"#utility.yul\":9737:9745   */\n      0x00\n        /* \"#utility.yul\":9787:9792   */\n      dup3\n        /* \"#utility.yul\":9781:9785   */\n      dup3\n        /* \"#utility.yul\":9777:9793   */\n      shl\n        /* \"#utility.yul\":9756:9793   */\n      swap1\n      pop\n        /* \"#utility.yul\":9693:9800   */\n      swap3\n      swap2\n      pop\n      pop\n      jump\t// out\n        /* \"#utility.yul\":9806:10199   */\n    tag_96:\n        /* \"#utility.yul\":9875:9881   */\n      0x00\n        /* \"#utility.yul\":9925:9926   */\n      0x08\n        /* \"#utility.yul\":9913:9923   */\n      dup4\n        /* \"#utility.yul\":9909:9927   */\n      mul\n        /* \"#utility.yul\":9948:10045   */\n      tag_218\n        /* \"#utility.yul\":9978:10044   */\n      0xffffffffffffffffffffffffffffffffffffffffffffffffffffffffffffffff\n        /* \"#utility.yul\":9967:9976   */\n      dup3\n        /* \"#utility.yul\":9948:10045   */\n      tag_95\n      jump\t// in\n    tag_218:\n        /* \"#utility.yul\":10066:10105   */\n      tag_219\n        /* \"#utility.yul\":10096:10104   */\n      dup7\n        /* \"#utility.yul\":10085:10094   */\n      dup4\n        /* \"#utility.yul\":10066:10105   */\n      tag_95\n      jump\t// in\n    tag_219:\n        /* \"#utility.yul\":10054:10105   */\n      swap6\n      pop\n        /* \"#utility.yul\":10138:10142   */\n      dup1\n        /* \"#utility.yul\":10134:10143   */\n      not\n        /* \"#utility.yul\":10127:10132   */\n      dup5\n        /* \"#utility.yul\":10123:10144   */\n      and\n        /* \"#utility.yul\":10114:10144   */\n      swap4\n      pop\n        /* \"#utility.yul\":10187:10191   */\n      dup1\n        /* \"#utility.yul\":10177:10185   */\n      dup7\n        /* \"#utility.yul\":10173:10192   */\n      and\n        /* \"#utility.yul\":10166:10171   */\n      dup5\n        /* \"#utility.yul\":10163:10193   */\n      or\n        /* \"#utility.yul\":10153:10193   */\n      swap3\n      pop\n        /* \"#utility.yul\":9882:10199   */\n      pop\n      pop\n        /* \"#utility.yul\":9806:10199   */\n      swap4\n      swap3\n      pop\n      pop\n      pop\n      jump\t// out\n        /* \"#utility.yul\":10205:10265   */\n    tag_97:\n        /* \"#utility.yul\":10233:10236   */\n      0x00\n        /* \"#utility.yul\":10254:10259   */\n      dup2\n        /* \"#utility.yul\":10247:10259   */\n      swap1\n      pop\n        /* \"#utility.yul\":10205:10265   */\n      swap2\n      swap1\n      pop\n      jump\t// out\n        /* \"#utility.yul\":10271:10413   */\n    tag_98:\n        /* \"#utility.yul\":10321:10330   */\n      0x00\n        /* \"#utility.yul\":10354:10407   */\n      tag_222\n        /* \"#utility.yul\":10372:10406   */\n      tag_223\n        /* \"#utility.yul\":10381:10405   */\n      tag_224\n        /* \"#utility.yul\":10399:10404   */\n      dup5\n        /* \"#utility.yul\":10381:10405   */\n      tag_74\n      jump\t// in\n    tag_224:\n        /* \"#utility.yul\":10372:10406   */\n      tag_97\n      jump\t// in\n    tag_223:\n        /* \"#utility.yul\":10354:10407   */\n      tag_74\n      jump\t// in\n    tag_222:\n        /* \"#utility.yul\":10341:10407   */\n      swap1\n      pop\n        /* \"#utility.yul\":10271:10413   */\n      swap2\n      swap1\n      pop\n      jump\t// out\n        /* \"#utility.yul\":10419:10494   */\n    tag_99:\n        /* \"#utility.yul\":10462:10465   */\n      0x00\n        /* \"#utility.yul\":10483:10488   */\n      dup2\n        /* \"#utility.yul\":10476:10488   */\n      swap1\n      pop\n        /* \"#utility.yul\":10419:10494   */\n      swap2\n      swap1\n      pop\n      jump\t// out\n        /* \"#utility.yul\":10500:10769   */\n    tag_100:\n        /* \"#utility.yul\":10610:10649   */\n      tag_227\n        /* \"#utility.yul\":10641:10648   */\n      dup4\n        /* \"#utility.yul\":10610:10649   */\n      tag_98\n      jump\t// in\n    tag_227:\n        /* \"#utility.yul\":10671:10762   */\n      tag_228\n        /* \"#utility.yul\":10720:10761   */\n      tag_229\n        /* \"#utility.yul\":10744:10760   */\n      dup3\n        /* \"#utility.yul\":10720:10761   */\n      tag_99\n      jump\t// in\n    tag_229:\n        /* \"#utility.yul\":10712:10718   */\n      dup5\n        /* \"#utility.yul\":10705:10709   */\n      dup5\n        /* \"#utility.yul\":10699:10710   */\n      sload\n        /* \"#utility.yul\":10671:10762   */\n      tag_96\n      jump\t// in\n    tag_228:\n        /* \"#utility.yul\":10665:10669   */\n      dup3\n        /* \"#utility.yul\":10658:10763   */\n      sstore\n        /* \"#utility.yul\":10576:10769   */\n      pop\n        /* \"#utility.yul\":10500:10769   */\n      pop\n      pop\n      pop\n      jump\t// out\n        /* \"#utility.yul\":10775:10848   */\n    tag_101:\n        /* \"#utility.yul\":10820:10823   */\n      0x00\n        /* \"#utility.yul\":10775:10848   */\n      swap1\n      jump\t// out\n        /* \"#utility.yul\":10854:11043   */\n    tag_102:\n        /* \"#utility.yul\":10931:10963   */\n      tag_232\n      tag_101\n      jump\t// in\n    tag_232:\n        /* \"#utility.yul\":10972:11037   */\n      tag_233\n        /* \"#utility.yul\":11030:11036   */\n      dup2\n        /* \"#utility.yul\":11022:11028   */\n      dup5\n        /* \"#utility.yul\":11016:11020   */\n      dup5\n        /* \"#utility.yul\":10972:11037   */\n      tag_100\n      jump\t// in\n    tag_233:\n        /* \"#utility.yul\":10907:11043   */\n      pop\n        /* \"#utility.yul\":10854:11043   */\n      pop\n      pop\n      jump\t// out\n        /* \"#utility.yul\":11049:11235   */\n    tag_103:\n        /* \"#utility.yul\":11109:11229   */\n    tag_235:\n        /* \"#utility.yul\":11126:11129   */\n      dup2\n        /* \"#utility.yul\":11119:11124   */\n      dup2\n        /* \"#utility.yul\":11116:11130   */\n      lt\n        /* \"#utility.yul\":11109:11229   */\n      iszero\n      tag_237\n      jumpi\n        /* \"#utility.yul\":11180:11219   */\n      tag_238\n        /* \"#utility.yul\":11217:11218   */\n      0x00\n        /* \"#utility.yul\":11210:11215   */\n      dup3\n        /* \"#utility.yul\":11180:11219   */\n      tag_102\n      jump\t// in\n    tag_238:\n        /* \"#utility.yul\":11153:11154   */\n      0x01\n        /* \"#utility.yul\":11146:11151   */\n      dup2\n        /* \"#utility.yul\":11142:11155   */\n      add\n        /* \"#utility.yul\":11133:11155   */\n      swap1\n      pop\n        /* \"#utility.yul\":11109:11229   */\n      jump(tag_235)\n    tag_237:\n        /* \"#utility.yul\":11049:11235   */\n      pop\n      pop\n      jump\t// out\n        /* \"#utility.yul\":11241:11784   */\n    tag_104:\n        /* \"#utility.yul\":11342:11344   */\n      0x1f\n        /* \"#utility.yul\":11337:11340   */\n      dup3\n        /* \"#utility.yul\":11334:11345   */\n      gt\n        /* \"#utility.yul\":11331:11777   */\n      iszero\n      tag_240\n      jumpi\n        /* \"#utility.yul\":11376:11414   */\n      tag_241\n        /* \"#utility.yul\":11408:11413   */\n      dup2\n        /* \"#utility.yul\":11376:11414   */\n      tag_93\n      jump\t// in\n    tag_241:\n        /* \"#utility.yul\":11460:11489   */\n      tag_242\n        /* \"#utility.yul\":11478:11488   */\n      dup5\n        /* \"#utility.yul\":11460:11489   */\n      tag_94\n      jump\t// in\n    tag_242:\n        /* \"#utility.yul\":11450:11458   */\n      dup2\n        /* \"#utility.yul\":11446:11490   */\n      add\n        /* \"#utility.yul\":11643:11645   */\n      0x20\n        /* \"#utility.yul\":11631:11641   */\n      dup6\n        /* \"#utility.yul\":11628:11646   */\n      lt\n        /* \"#utility.yul\":11625:11674   */\n      iszero\n      tag_243\n      jumpi\n        /* \"#utility.yul\":11664:11672   */\n      dup2\n        /* \"#utility.yul\":11649:11672   */\n      swap1\n      pop\n        /* \"#utility.yul\":11625:11674   */\n    tag_243:\n        /* \"#utility.yul\":11687:11767   */\n      tag_244\n        /* \"#utility.yul\":11743:11765   */\n      tag_245\n        /* \"#utility.yul\":11761:11764   */\n      dup6\n        /* \"#utility.yul\":11743:11765   */\n      tag_94\n      jump\t// in\n    tag_245:\n        /* \"#utility.yul\":11733:11741   */\n      dup4\n        /* \"#utility.yul\":11729:11766   */\n      add\n        /* \"#utility.yul\":11716:11727   */\n      dup3\n        /* \"#utility.yul\":11687:11767   */\n      tag_103\n      jump\t// in\n    tag_244:\n        /* \"#utility.yul\":11346:11777   */\n      pop\n      pop\n        /* \"#utility.yul\":11331:11777   */\n    tag_240:\n        /* \"#utility.yul\":11241:11784   */\n      pop\n      pop\n      pop\n      jump\t// out\n        /* \"#utility.yul\":11790:11907   */\n    tag_105:\n        /* \"#utility.yul\":11844:11852   */\n      0x00\n        /* \"#utility.yul\":11894:11899   */\n      dup3\n        /* \"#utility.yul\":11888:11892   */\n      dup3\n        /* \"#utility.yul\":11884:11900   */\n      shr\n        /* \"#utility.yul\":11863:11900   */\n      swap1\n      pop\n        /* \"#utility.yul\":11790:11907   */\n      swap3\n      swap2\n      pop\n      pop\n      jump\t// out\n        /* \"#utility.yul\":11913:12082   */\n    tag_106:\n        /* \"#utility.yul\":11957:11963   */\n      0x00\n        /* \"#utility.yul\":11990:12041   */\n      tag_248\n        /* \"#utility.yul\":12038:12039   */\n      0x00\n        /* \"#utility.yul\":12034:12040   */\n      not\n        /* \"#utility.yul\":12026:12031   */\n      dup5\n        /* \"#utility.yul\":12023:12024   */\n      0x08\n        /* \"#utility.yul\":12019:12032   */\n      mul\n        /* \"#utility.yul\":11990:12041   */\n      tag_105\n      jump\t// in\n    tag_248:\n        /* \"#utility.yul\":11986:12042   */\n      not\n        /* \"#utility.yul\":12071:12075   */\n      dup1\n        /* \"#utility.yul\":12065:12069   */\n      dup4\n        /* \"#utility.yul\":12061:12076   */\n      and\n        /* \"#utility.yul\":12051:12076   */\n      swap2\n      pop\n        /* \"#utility.yul\":11964:12082   */\n      pop\n        /* \"#utility.yul\":11913:12082   */\n      swap3\n      swap2\n      pop\n      pop\n      jump\t// out\n        /* \"#utility.yul\":12087:12382   */\n    tag_107:\n        /* \"#utility.yul\":12163:12167   */\n      0x00\n        /* \"#utility.yul\":12309:12338   */\n      tag_250\n        /* \"#utility.yul\":12334:12337   */\n      dup4\n        /* \"#utility.yul\":12328:12332   */\n      dup4\n        /* \"#utility.yul\":12309:12338   */\n      tag_106\n      jump\t// in\n    tag_250:\n        /* \"#utility.yul\":12301:12338   */\n      swap2\n      pop\n        /* \"#utility.yul\":12371:12374   */\n      dup3\n        /* \"#utility.yul\":12368:12369   */\n      0x02\n        /* \"#utility.yul\":12364:12375   */\n      mul\n        /* \"#utility.yul\":12358:12362   */\n      dup3\n        /* \"#utility.yul\":12355:12376   */\n      or\n        /* \"#utility.yul\":12347:12376   */\n      swap1\n      pop\n        /* \"#utility.yul\":12087:12382   */\n      swap3\n      swap2\n      pop\n      pop\n      jump\t// out\n        /* \"#utility.yul\":12387:13782   */\n    tag_36:\n        /* \"#utility.yul\":12504:12541   */\n      tag_252\n        /* \"#utility.yul\":12537:12540   */\n      dup3\n        /* \"#utility.yul\":12504:12541   */\n      tag_81\n      jump\t// in\n    tag_252:\n        /* \"#utility.yul\":12606:12624   */\n      0xffffffffffffffff\n        /* \"#utility.yul\":12598:12604   */\n      dup2\n        /* \"#utility.yul\":12595:12625   */\n      gt\n        /* \"#utility.yul\":12592:12648   */\n      iszero\n      tag_253\n      jumpi\n        /* \"#utility.yul\":12628:12646   */\n      tag_254\n      tag_67\n      jump\t// in\n    tag_254:\n        /* \"#utility.yul\":12592:12648   */\n    tag_253:\n        /* \"#utility.yul\":12672:12710   */\n      tag_255\n        /* \"#utility.yul\":12704:12708   */\n      dup3\n        /* \"#utility.yul\":12698:12709   */\n      sload\n        /* \"#utility.yul\":12672:12710   */\n      tag_40\n      jump\t// in\n    tag_255:\n        /* \"#utility.yul\":12757:12824   */\n      tag_256\n        /* \"#utility.yul\":12817:12823   */\n      dup3\n        /* \"#utility.yul\":12809:12815   */\n      dup3\n        /* \"#utility.yul\":12803:12807   */\n      dup6\n        /* \"#utility.yul\":12757:12824   */\n      tag_104\n      jump\t// in\n    tag_256:\n        /* \"#utility.yul\":12851:12852   */\n      0x00\n        /* \"#utility.yul\":12875:12879   */\n      0x20\n        /* \"#utility.yul\":12862:12879   */\n      swap1\n      pop\n        /* \"#utility.yul\":12907:12909   */\n      0x1f\n        /* \"#utility.yul\":12899:12905   */\n      dup4\n        /* \"#utility.yul\":12896:12910   */\n      gt\n        /* \"#utility.yul\":12924:12925   */\n      0x01\n        /* \"#utility.yul\":12919:13537   */\n      dup2\n      eq\n      tag_258\n      jumpi\n        /* \"#utility.yul\":13581:13582   */\n      0x00\n        /* \"#utility.yul\":13598:13604   */\n      dup5\n        /* \"#utility.yul\":13595:13672   */\n      iszero\n      tag_259\n      jumpi\n        /* \"#utility.yul\":13647:13656   */\n      dup3\n        /* \"#utility.yul\":13642:13645   */\n      dup8\n        /* \"#utility.yul\":13638:13657   */\n      add\n        /* \"#utility.yul\":13632:13658   */\n      mload\n        /* \"#utility.yul\":13623:13658   */\n      swap1\n      pop\n        /* \"#utility.yul\":13595:13672   */\n    tag_259:\n        /* \"#utility.yul\":13698:13765   */\n      tag_260\n        /* \"#utility.yul\":13758:13764   */\n      dup6\n        /* \"#utility.yul\":13751:13756   */\n      dup3\n        /* \"#utility.yul\":13698:13765   */\n      tag_107\n      jump\t// in\n    tag_260:\n        /* \"#utility.yul\":13692:13696   */\n      dup7\n        /* \"#utility.yul\":13685:13766   */\n      sstore\n        /* \"#utility.yul\":13554:13776   */\n      pop\n        /* \"#utility.yul\":12889:13776   */\n      jump(tag_257)\n        /* \"#utility.yul\":12919:13537   */\n    tag_258:\n        /* \"#utility.yul\":12971:12975   */\n      0x1f\n        /* \"#utility.yul\":12967:12976   */\n      not\n        /* \"#utility.yul\":12959:12965   */\n      dup5\n        /* \"#utility.yul\":12955:12977   */\n      and\n        /* \"#utility.yul\":13005:13042   */\n      tag_261\n        /* \"#utility.yul\":13037:13041   */\n      dup7\n        /* \"#utility.yul\":13005:13042   */\n      tag_93\n      jump\t// in\n    tag_261:\n        /* \"#utility.yul\":13064:13065   */\n      0x00\n        /* \"#utility.yul\":13078:13286   */\n    tag_262:\n        /* \"#utility.yul\":13092:13099   */\n      dup3\n        /* \"#utility.yul\":13089:13090   */\n      dup2\n        /* \"#utility.yul\":13086:13100   */\n      lt\n        /* \"#utility.yul\":13078:13286   */\n      iszero\n      tag_264\n      jumpi\n        /* \"#utility.yul\":13171:13180   */\n      dup5\n        /* \"#utility.yul\":13166:13169   */\n      dup10\n        /* \"#utility.yul\":13162:13181   */\n      add\n        /* \"#utility.yul\":13156:13182   */\n      mload\n        /* \"#utility.yul\":13148:13154   */\n      dup3\n        /* \"#utility.yul\":13141:13183   */\n      sstore\n        /* \"#utility.yul\":13222:13223   */\n      0x01\n        /* \"#utility.yul\":13214:13220   */\n      dup3\n        /* \"#utility.yul\":13210:13224   */\n      add\n        /* \"#utility.yul\":13200:13224   */\n      swap2\n      pop\n        /* \"#utility.yul\":13269:13271   */\n      0x20\n        /* \"#utility.yul\":13258:13267   */\n      dup6\n        /* \"#utility.yul\":13254:13272   */\n      add\n        /* \"#utility.yul\":13241:13272   */\n      swap5\n      pop\n        /* \"#utility.yul\":13115:13119   */\n      0x20\n        /* \"#utility.yul\":13112:13113   */\n      dup2\n        /* \"#utility.yul\":13108:13120   */\n      add\n        /* \"#utility.yul\":13103:13120   */\n      swap1\n      pop\n        /* \"#utility.yul\":13078:13286   */\n      jump(tag_262)\n    tag_264:\n        /* \"#utility.yul\":13314:13320   */\n      dup7\n        /* \"#utility.yul\":13305:13312   */\n      dup4\n        /* \"#utility.yul\":13302:13321   */\n      lt\n        /* \"#utility.yul\":13299:13478   */\n      iszero\n      tag_265\n      jumpi\n        /* \"#utility.yul\":13372:13381   */\n      dup5\n        /* \"#utility.yul\":13367:13370   */\n      dup10\n        /* \"#utility.yul\":13363:13382   */\n      add\n        /* \"#utility.yul\":13357:13383   */\n      mload\n        /* \"#utility.yul\":13415:13463   */\n      tag_266\n        /* \"#utility.yul\":13457:13461   */\n      0x1f\n        /* \"#utility.yul\":13449:13455   */\n      dup10\n        /* \"#utility.yul\":13445:13462   */\n      and\n        /* \"#utility.yul\":13434:13443   */\n      dup3\n        /* \"#utility.yul\":13415:13463   */\n      tag_106\n      jump\t// in\n    tag_266:\n        /* \"#utility.yul\":13407:13413   */\n      dup4\n        /* \"#utility.yul\":13400:13464   */\n      sstore\n        /* \"#utility.yul\":13322:13478   */\n      pop\n        /* \"#utility.yul\":13299:13478   */\n    tag_265:\n        /* \"#utility.yul\":13524:13525   */\n      0x01\n        /* \"#utility.yul\":13520:13521   */\n      0x02\n        /* \"#utility.yul\":13512:13518   */\n      dup9\n        /* \"#utility.yul\":13508:13522   */\n      mul\n        /* \"#utility.yul\":13504:13526   */\n      add\n        /* \"#utility.yul\":13498:13502   */\n      dup9\n        /* \"#utility.yul\":13491:13527   */\n      sstore\n        /* \"#utility.yul\":12926:13537   */\n      pop\n      pop\n      pop\n        /* \"#utility.yul\":12889:13776   */\n    tag_257:\n      pop\n        /* \"#utility.yul\":12479:13782   */\n      pop\n      pop\n      pop\n        /* \"#utility.yul\":12387:13782   */\n      pop\n      pop\n      jump\t// out\n        /* \"#utility.yul\":13788:14211   */\n    tag_38:\n        /* \"#utility.yul\":13929:13933   */\n      0x00\n        /* \"#utility.yul\":13967:13969   */\n      0x40\n        /* \"#utility.yul\":13956:13965   */\n      dup3\n        /* \"#utility.yul\":13952:13970   */\n      add\n        /* \"#utility.yul\":13944:13970   */\n      swap1\n      pop\n        /* \"#utility.yul\":14016:14025   */\n      dup2\n        /* \"#utility.yul\":14010:14014   */\n      dup2\n        /* \"#utility.yul\":14006:14026   */\n      sub\n        /* \"#utility.yul\":14002:14003   */\n      0x00\n        /* \"#utility.yul\":13991:14000   */\n      dup4\n        /* \"#utility.yul\":13987:14004   */\n      add\n        /* \"#utility.yul\":13980:14027   */\n      mstore\n        /* \"#utility.yul\":14044:14122   */\n      tag_268\n        /* \"#utility.yul\":14117:14121   */\n      dup2\n        /* \"#utility.yul\":14108:14114   */\n      dup6\n        /* \"#utility.yul\":14044:14122   */\n      tag_84\n      jump\t// in\n    tag_268:\n        /* \"#utility.yul\":14036:14122   */\n      swap1\n      pop\n        /* \"#utility.yul\":14132:14204   */\n      tag_269\n        /* \"#utility.yul\":14200:14202   */\n      0x20\n        /* \"#utility.yul\":14189:14198   */\n      dup4\n        /* \"#utility.yul\":14185:14203   */\n      add\n        /* \"#utility.yul\":14176:14182   */\n      dup5\n        /* \"#utility.yul\":14132:14204   */\n      tag_77\n      jump\t// in\n    tag_269:\n        /* \"#utility.yul\":13788:14211   */\n      swap4\n      swap3\n      pop\n      pop\n      pop\n      jump\t// out\n        /* \"#utility.yul\":14217:14386   */\n    tag_108:\n        /* \"#utility.yul\":14357:14378   */\n      0x6974656d20646f6573206e6f7420657869737400000000000000000000000000\n        /* \"#utility.yul\":14353:14354   */\n      0x00\n        /* \"#utility.yul\":14345:14351   */\n      dup3\n        /* \"#utility.yul\":14341:14355   */\n      add\n        /* \"#utility.yul\":14334:14379   */\n      mstore\n        /* \"#utility.yul\":14217:14386   */\n      pop\n      jump\t// out\n        /* \"#utility.yul\":14392:14758   */\n    tag_109:\n        /* \"#utility.yul\":14534:14537   */\n      0x00\n        /* \"#utility.yul\":14555:14622   */\n      tag_272\n        /* \"#utility.yul\":14619:14621   */\n      0x13\n        /* \"#utility.yul\":14614:14617   */\n      dup4\n        /* \"#utility.yul\":14555:14622   */\n      tag_82\n      jump\t// in\n    tag_272:\n        /* \"#utility.yul\":14548:14622   */\n      swap2\n      pop\n        /* \"#utility.yul\":14631:14724   */\n      tag_273\n        /* \"#utility.yul\":14720:14723   */\n      dup3\n        /* \"#utility.yul\":14631:14724   */\n      tag_108\n      jump\t// in\n    tag_273:\n        /* \"#utility.yul\":14749:14751   */\n      0x20\n        /* \"#utility.yul\":14744:14747   */\n      dup3\n        /* \"#utility.yul\":14740:14752   */\n      add\n        /* \"#utility.yul\":14733:14752   */\n      swap1\n      pop\n        /* \"#utility.yul\":14392:14758   */\n      swap2\n      swap1\n      pop\n      jump\t// out\n        /* \"#utility.yul\":14764:15183   */\n    tag_48:\n        /* \"#utility.yul\":14930:14934   */\n      0x00\n        /* \"#utility.yul\":14968:14970   */\n      0x20\n        /* \"#utility.yul\":14957:14966   */\n      dup3\n        /* \"#utility.yul\":14953:14971   */\n      add\n        /* \"#utility.yul\":14945:14971   */\n      swap1\n      pop\n        /* \"#utility.yul\":15017:15026   */\n      dup2\n        /* \"#utility.yul\":15011:15015   */\n      dup2\n        /* \"#utility.yul\":15007:15027   */\n      sub\n        /* \"#utility.yul\":15003:15004   */\n      0x00\n        /* \"#utility.yul\":14992:15001   */\n      dup4\n        /* \"#utility.yul\":14988:15005   */\n      add\n        /* \"#utility.yul\":14981:15028   */\n      mstore\n        /* \"#utility.yul\":15045:15176   */\n      tag_275\n        /* \"#utility.yul\":15171:15175   */\n      dup2\n        /* \"#utility.yul\":15045:15176   */\n      tag_109\n      jump\t// in\n    tag_275:\n        /* \"#utility.yul\":15037:15176   */\n      swap1\n      pop\n        /* \"#utility.yul\":14764:15183   */\n      swap2\n      swap1\n      pop\n      jump\t// out\n        /* \"#utility.yul\":15189:15359   */\n    tag_110:\n        /* \"#utility.yul\":15329:15351   */\n      0x696e636f72726563742065746865722073656e74000000000000000000000000\n        /* \"#utility.yul\":15325:15326   */\n      0x00\n        /* \"#utility.yul\":15317:15323   */\n      dup3\n        /* \"#utility.yul\":15313:15327   */\n      add\n        /* \"#utility.yul\":15306:15352   */\n      mstore\n        /* \"#utility.yul\":15189:15359   */\n      pop\n      jump\t// out\n        /* \"#utility.yul\":15365:15731   */\n    tag_111:\n        /* \"#utility.yul\":15507:15510   */\n      0x00\n        /* \"#utility.yul\":15528:15595   */\n      tag_278\n        /* \"#utility.yul\":15592:15594   */\n      0x14\n        /* \"#utility.yul\":15587:15590   */\n      dup4\n        /* \"#utility.yul\":15528:15595   */\n      tag_82\n      jump\t// in\n    tag_278:\n        /* \"#utility.yul\":15521:15595   */\n      swap2\n      pop\n        /* \"#utility.yul\":15604:15697   */\n      tag_279\n        /* \"#utility.yul\":15693:15696   */\n      dup3\n        /* \"#utility.yul\":15604:15697   */\n      tag_110\n      jump\t// in\n    tag_279:\n        /* \"#utility.yul\":15722:15724   */\n      0x20\n        /* \"#utility.yul\":15717:15720   */\n      dup3\n        /* \"#utility.yul\":15713:15725   */\n      add\n        /* \"#utility.yul\":15706:15725   */\n      swap1\n      pop\n        /* \"#utility.yul\":15365:15731   */\n      swap2\n      swap1\n      pop\n      jump\t// out\n        /* \"#utility.yul\":15737:16156   */\n    tag_51:\n        /* \"#utility.yul\":15903:15907   */\n      0x00\n        /* \"#utility.yul\":15941:15943   */\n      0x20\n        /* \"#utility.yul\":15930:15939   */\n      dup3\n        /* \"#utility.yul\":15926:15944   */\n      add\n        /* \"#utility.yul\":15918:15944   */\n      swap1\n      pop\n        /* \"#utility.yul\":15990:15999   */\n      dup2\n        /* \"#utility.yul\":15984:15988   */\n      dup2\n        /* \"#utility.yul\":15980:16000   */\n      sub\n        /* \"#utility.yul\":15976:15977   */\n      0x00\n        /* \"#utility.yul\":15965:15974   */\n      dup4\n        /* \"#utility.yul\":15961:15978   */\n      add\n        /* \"#utility.yul\":15954:16001   */\n      mstore\n        /* \"#utility.yul\":16018:16149   */\n      tag_281\n        /* \"#utility.yul\":16144:16148   */\n      dup2\n        /* \"#utility.yul\":16018:16149   */\n      tag_111\n      jump\t// in\n    tag_281:\n        /* \"#utility.yul\":16010:16149   */\n      swap1\n      pop\n        /* \"#utility.yul\":15737:16156   */\n      swap2\n      swap1\n      pop\n      jump\t// out\n        /* \"#utility.yul\":16162:16332   */\n    tag_112:\n        /* \"#utility.yul\":16302:16324   */\n      0x6974656d20616c726561647920736f6c646f7574000000000000000000000000\n        /* \"#utility.yul\":16298:16299   */\n      0x00\n        /* \"#utility.yul\":16290:16296   */\n      dup3\n        /* \"#utility.yul\":16286:16300   */\n      add\n        /* \"#utility.yul\":16279:16325   */\n      mstore\n        /* \"#utility.yul\":16162:16332   */\n      pop\n      jump\t// out\n        /* \"#utility.yul\":16338:16704   */\n    tag_113:\n        /* \"#utility.yul\":16480:16483   */\n      0x00\n        /* \"#utility.yul\":16501:16568   */\n      tag_284\n        /* \"#utility.yul\":16565:16567   */\n      0x14\n        /* \"#utility.yul\":16560:16563   */\n      dup4\n        /* \"#utility.yul\":16501:16568   */\n      tag_82\n      jump\t// in\n    tag_284:\n        /* \"#utility.yul\":16494:16568   */\n      swap2\n      pop\n        /* \"#utility.yul\":16577:16670   */\n      tag_285\n        /* \"#utility.yul\":16666:16669   */\n      dup3\n        /* \"#utility.yul\":16577:16670   */\n      tag_112\n      jump\t// in\n    tag_285:\n        /* \"#utility.yul\":16695:16697   */\n      0x20\n        /* \"#utility.yul\":16690:16693   */\n      dup3\n        /* \"#utility.yul\":16686:16698   */\n      add\n        /* \"#utility.yul\":16679:16698   */\n      swap1\n      pop\n        /* \"#utility.yul\":16338:16704   */\n      swap2\n      swap1\n      pop\n      jump\t// out\n        /* \"#utility.yul\":16710:17129   */\n    tag_54:\n        /* \"#utility.yul\":16876:16880   */\n      0x00\n        /* \"#utility.yul\":16914:16916   */\n      0x20\n        /* \"#utility.yul\":16903:16912   */\n      dup3\n        /* \"#utility.yul\":16899:16917   */\n      add\n        /* \"#utility.yul\":16891:16917   */\n      swap1\n      pop\n        /* \"#utility.yul\":16963:16972   */\n      dup2\n        /* \"#utility.yul\":16957:16961   */\n      dup2\n        /* \"#utility.yul\":16953:16973   */\n      sub\n        /* \"#utility.yul\":16949:16950   */\n      0x00\n        /* \"#utility.yul\":16938:16947   */\n      dup4\n        /* \"#utility.yul\":16934:16951   */\n      add\n        /* \"#utility.yul\":16927:16974   */\n      mstore\n        /* \"#utility.yul\":16991:17122   */\n      tag_287\n        /* \"#utility.yul\":17117:17121   */\n      dup2\n        /* \"#utility.yul\":16991:17122   */\n      tag_113\n      jump\t// in\n    tag_287:\n        /* \"#utility.yul\":16983:17122   */\n      swap1\n      pop\n        /* \"#utility.yul\":16710:17129   */\n      swap2\n      swap1\n      pop\n      jump\t// out\n        /* \"#utility.yul\":17135:17317   */\n    tag_114:\n        /* \"#utility.yul\":17275:17309   */\n      0x73656c6c65722063616e6e6f7420627579207468656972206f776e206974656d\n        /* \"#utility.yul\":17271:17272   */\n      0x00\n        /* \"#utility.yul\":17263:17269   */\n      dup3\n        /* \"#utility.yul\":17259:17273   */\n      add\n        /* \"#utility.yul\":17252:17310   */\n      mstore\n        /* \"#utility.yul\":17135:17317   */\n      pop\n      jump\t// out\n        /* \"#utility.yul\":17323:17689   */\n    tag_115:\n        /* \"#utility.yul\":17465:17468   */\n      0x00\n        /* \"#utility.yul\":17486:17553   */\n      tag_290\n        /* \"#utility.yul\":17550:17552   */\n      0x20\n        /* \"#utility.yul\":17545:17548   */\n      dup4\n        /* \"#utility.yul\":17486:17553   */\n      tag_82\n      jump\t// in\n    tag_290:\n        /* \"#utility.yul\":17479:17553   */\n      swap2\n      pop\n        /* \"#utility.yul\":17562:17655   */\n      tag_291\n        /* \"#utility.yul\":17651:17654   */\n      dup3\n        /* \"#utility.yul\":17562:17655   */\n      tag_114\n      jump\t// in\n    tag_291:\n        /* \"#utility.yul\":17680:17682   */\n      0x20\n        /* \"#utility.yul\":17675:17678   */\n      dup3\n        /* \"#utility.yul\":17671:17683   */\n      add\n        /* \"#utility.yul\":17664:17683   */\n      swap1\n      pop\n        /* \"#utility.yul\":17323:17689   */\n      swap2\n      swap1\n      pop\n      jump\t// out\n        /* \"#utility.yul\":17695:18114   */\n    tag_57:\n        /* \"#utility.yul\":17861:17865   */\n      0x00\n        /* \"#utility.yul\":17899:17901   */\n      0x20\n        /* \"#utility.yul\":17888:17897   */\n      dup3\n        /* \"#utility.yul\":17884:17902   */\n      add\n        /* \"#utility.yul\":17876:17902   */\n      swap1\n      pop\n        /* \"#utility.yul\":17948:17957   */\n      dup2\n        /* \"#utility.yul\":17942:17946   */\n      dup2\n        /* \"#utility.yul\":17938:17958   */\n      sub\n        /* \"#utility.yul\":17934:17935   */\n      0x00\n        /* \"#utility.yul\":17923:17932   */\n      dup4\n        /* \"#utility.yul\":17919:17936   */\n      add\n        /* \"#utility.yul\":17912:17959   */\n      mstore\n        /* \"#utility.yul\":17976:18107   */\n      tag_293\n        /* \"#utility.yul\":18102:18106   */\n      dup2\n        /* \"#utility.yul\":17976:18107   */\n      tag_115\n      jump\t// in\n    tag_293:\n        /* \"#utility.yul\":17968:18107   */\n      swap1\n      pop\n        /* \"#utility.yul\":17695:18114   */\n      swap2\n      swap1\n      pop\n      jump\t// out\n\n    auxdata: 0xa264697066735822122083557e040fe8a985e3ba363c00d5a08b37c8a930f8914cbc2b07d76efa4dd3e664736f6c63430008130033\n}\n",
				"bytecode": {
					"linkReferences": {},
					"object": "60806040526000805534801561001457600080fd5b50611021806100246000396000f3fe60806040526004361061003f5760003560e01c80630e17887b146100445780636bfb0d011461006d578063bfb231d214610098578063e7fb74c7146100d9575b600080fd5b34801561005057600080fd5b5061006b600480360381019061006691906107f6565b6100f5565b005b34801561007957600080fd5b506100826102d4565b60405161008f9190610861565b60405180910390f35b3480156100a457600080fd5b506100bf60048036038101906100ba919061087c565b6102da565b6040516100d0959493929190610984565b60405180910390f35b6100f360048036038101906100ee919061087c565b6103c5565b005b6000825111610139576040517f08c379a000000000000000000000000000000000000000000000000000000000815260040161013090610a2a565b60405180910390fd5b6000811161017c576040517f08c379a000000000000000000000000000000000000000000000000000000000815260040161017390610a96565b60405180910390fd5b60008081548092919061018e90610ae5565b91905055506040518060a0016040528060005481526020013373ffffffffffffffffffffffffffffffffffffffff1681526020018381526020018281526020016000151581525060016000805481526020019081526020016000206000820151816000015560208201518160010160006101000a81548173ffffffffffffffffffffffffffffffffffffffff021916908373ffffffffffffffffffffffffffffffffffffffff160217905550604082015181600201908161024f9190610d39565b506060820151816003015560808201518160040160006101000a81548160ff0219169083151502179055509050503373ffffffffffffffffffffffffffffffffffffffff166000547fdb174402d29ac972ef2549a86d490b58fbe924b976baf8580ff0de417d4c5a5384846040516102c8929190610e0b565b60405180910390a35050565b60005481565b60016020528060005260406000206000915090508060000154908060010160009054906101000a900473ffffffffffffffffffffffffffffffffffffffff169080600201805461032990610b5c565b80601f016020809104026020016040519081016040528092919081815260200182805461035590610b5c565b80156103a25780601f10610377576101008083540402835291602001916103a2565b820191906000526020600020905b81548152906001019060200180831161038557829003601f168201915b5050505050908060030154908060040160009054906101000a900460ff16905085565b600060016000838152602001908152602001600020905081816000015414610422576040517f08c379a000000000000000000000000000000000000000000000000000000000815260040161041990610e87565b60405180910390fd5b80600301543414610468576040517f08c379a000000000000000000000000000000000000000000000000000000000815260040161045f90610ef3565b60405180910390fd5b8060040160009054906101000a900460ff16156104ba576040517f08c379a00000000000000000000000000000000000000000000000000000000081526004016104b190610f5f565b60405180910390fd5b8060010160009054906101000a900473ffffffffffffffffffffffffffffffffffffffff1673ffffffffffffffffffffffffffffffffffffffff163373ffffffffffffffffffffffffffffffffffffffff160361054c576040517f08c379a000000000000000000000000000000000000000000000000000000000815260040161054390610fcb565b60405180910390fd5b60018160040160006101000a81548160ff0219169083151502179055508060010160009054906101000a900473ffffffffffffffffffffffffffffffffffffffff1673ffffffffffffffffffffffffffffffffffffffff166108fc349081150290604051600060405180830381858888f193505050501580156105d3573d6000803e3d6000fd5b508060010160009054906101000a900473ffffffffffffffffffffffffffffffffffffffff1673ffffffffffffffffffffffffffffffffffffffff163373ffffffffffffffffffffffffffffffffffffffff16837f29ae2cfd57568e7cbcc0d11cda1ceb179a63c64f951e147665951d60aa946a7b846003015460405161065a9190610861565b60405180910390a45050565b6000604051905090565b600080fd5b600080fd5b600080fd5b600080fd5b6000601f19601f8301169050919050565b7f4e487b7100000000000000000000000000000000000000000000000000000000600052604160045260246000fd5b6106cd82610684565b810181811067ffffffffffffffff821117156106ec576106eb610695565b5b80604052505050565b60006106ff610666565b905061070b82826106c4565b919050565b600067ffffffffffffffff82111561072b5761072a610695565b5b61073482610684565b9050602081019050919050565b82818337600083830152505050565b600061076361075e84610710565b6106f5565b90508281526020810184848401111561077f5761077e61067f565b5b61078a848285610741565b509392505050565b600082601f8301126107a7576107a661067a565b5b81356107b7848260208601610750565b91505092915050565b6000819050919050565b6107d3816107c0565b81146107de57600080fd5b50565b6000813590506107f0816107ca565b92915050565b6000806040838503121561080d5761080c610670565b5b600083013567ffffffffffffffff81111561082b5761082a610675565b5b61083785828601610792565b9250506020610848858286016107e1565b9150509250929050565b61085b816107c0565b82525050565b60006020820190506108766000830184610852565b92915050565b60006020828403121561089257610891610670565b5b60006108a0848285016107e1565b91505092915050565b600073ffffffffffffffffffffffffffffffffffffffff82169050919050565b60006108d4826108a9565b9050919050565b6108e4816108c9565b82525050565b600081519050919050565b600082825260208201905092915050565b60005b83811015610924578082015181840152602081019050610909565b60008484015250505050565b600061093b826108ea565b61094581856108f5565b9350610955818560208601610906565b61095e81610684565b840191505092915050565b60008115159050919050565b61097e81610969565b82525050565b600060a0820190506109996000830188610852565b6109a660208301876108db565b81810360408301526109b88186610930565b90506109c76060830185610852565b6109d46080830184610975565b9695505050505050565b7f4974656d206e616d652069732072657175697265640000000000000000000000600082015250565b6000610a146015836108f5565b9150610a1f826109de565b602082019050919050565b60006020820190508181036000830152610a4381610a07565b9050919050565b7f50726963652073686f756c642062652067726561746572207468616e20300000600082015250565b6000610a80601e836108f5565b9150610a8b82610a4a565b602082019050919050565b60006020820190508181036000830152610aaf81610a73565b9050919050565b7f4e487b7100000000000000000000000000000000000000000000000000000000600052601160045260246000fd5b6000610af0826107c0565b91507fffffffffffffffffffffffffffffffffffffffffffffffffffffffffffffffff8203610b2257610b21610ab6565b5b600182019050919050565b7f4e487b7100000000000000000000000000000000000000000000000000000000600052602260045260246000fd5b60006002820490506001821680610b7457607f821691505b602082108103610b8757610b86610b2d565b5b50919050565b60008190508160005260206000209050919050565b60006020601f8301049050919050565b600082821b905092915050565b600060088302610bef7fffffffffffffffffffffffffffffffffffffffffffffffffffffffffffffffff82610bb2565b610bf98683610bb2565b95508019841693508086168417925050509392505050565b6000819050919050565b6000610c36610c31610c2c846107c0565b610c11565b6107c0565b9050919050565b6000819050919050565b610c5083610c1b565b610c64610c5c82610c3d565b848454610bbf565b825550505050565b600090565b610c79610c6c565b610c84818484610c47565b505050565b5b81811015610ca857610c9d600082610c71565b600181019050610c8a565b5050565b601f821115610ced57610cbe81610b8d565b610cc784610ba2565b81016020851015610cd6578190505b610cea610ce285610ba2565b830182610c89565b50505b505050565b600082821c905092915050565b6000610d1060001984600802610cf2565b1980831691505092915050565b6000610d298383610cff565b9150826002028217905092915050565b610d42826108ea565b67ffffffffffffffff811115610d5b57610d5a610695565b5b610d658254610b5c565b610d70828285610cac565b600060209050601f831160018114610da35760008415610d91578287015190505b610d9b8582610d1d565b865550610e03565b601f198416610db186610b8d565b60005b82811015610dd957848901518255600182019150602085019450602081019050610db4565b86831015610df65784890151610df2601f891682610cff565b8355505b6001600288020188555050505b505050505050565b60006040820190508181036000830152610e258185610930565b9050610e346020830184610852565b9392505050565b7f6974656d20646f6573206e6f7420657869737400000000000000000000000000600082015250565b6000610e716013836108f5565b9150610e7c82610e3b565b602082019050919050565b60006020820190508181036000830152610ea081610e64565b9050919050565b7f696e636f72726563742065746865722073656e74000000000000000000000000600082015250565b6000610edd6014836108f5565b9150610ee882610ea7565b602082019050919050565b60006020820190508181036000830152610f0c81610ed0565b9050919050565b7f6974656d20616c726561647920736f6c646f7574000000000000000000000000600082015250565b6000610f496014836108f5565b9150610f5482610f13565b602082019050919050565b60006020820190508181036000830152610f7881610f3c565b9050919050565b7f73656c6c65722063616e6e6f7420627579207468656972206f776e206974656d600082015250565b6000610fb56020836108f5565b9150610fc082610f7f565b602082019050919050565b60006020820190508181036000830152610fe481610fa8565b905091905056fea264697066735822122083557e040fe8a985e3ba363c00d5a08b37c8a930f8914cbc2b07d76efa4dd3e664736f6c63430008130033",
					"opcodes": "PUSH1 0x80 PUSH1 0x40 MSTORE PUSH1 0x0 DUP1 SSTORE CALLVALUE DUP1 ISZERO PUSH2 0x14 JUMPI PUSH1 0x0 DUP1 REVERT JUMPDEST POP PUSH2 0x1021 DUP1 PUSH2 0x24 PUSH1 0x0 CODECOPY PUSH1 0x0 RETURN INVALID PUSH1 0x80 PUSH1 0x40 MSTORE PUSH1 0x4 CALLDATASIZE LT PUSH2 0x3F JUMPI PUSH1 0x0 CALLDATALOAD PUSH1 0xE0 SHR DUP1 PUSH4 0xE17887B EQ PUSH2 0x44 JUMPI DUP1 PUSH4 0x6BFB0D01 EQ PUSH2 0x6D JUMPI DUP1 PUSH4 0xBFB231D2 EQ PUSH2 0x98 JUMPI DUP1 PUSH4 0xE7FB74C7 EQ PUSH2 0xD9 JUMPI JUMPDEST PUSH1 0x0 DUP1 REVERT JUMPDEST CALLVALUE DUP1 ISZERO PUSH2 0x50 JUMPI PUSH1 0x0 DUP1 REVERT JUMPDEST POP PUSH2 0x6B PUSH1 0x4 DUP1 CALLDATASIZE SUB DUP2 ADD SWAP1 PUSH2 0x66 SWAP2 SWAP1 PUSH2 0x7F6 JUMP JUMPDEST PUSH2 0xF5 JUMP JUMPDEST STOP JUMPDEST CALLVALUE DUP1 ISZERO PUSH2 0x79 JUMPI PUSH1 0x0 DUP1 REVERT JUMPDEST POP PUSH2 0x82 PUSH2 0x2D4 JUMP JUMPDEST PUSH1 0x40 MLOAD PUSH2 0x8F SWAP2 SWAP1 PUSH2 0x861 JUMP JUMPDEST PUSH1 0x40 MLOAD DUP1 SWAP2 SUB SWAP1 RETURN JUMPDEST CALLVALUE DUP1 ISZERO PUSH2 0xA4 JUMPI PUSH1 0x0 DUP1 REVERT JUMPDEST POP PUSH2 0xBF PUSH1 0x4 DUP1 CALLDATASIZE SUB DUP2 ADD SWAP1 PUSH2 0xBA SWAP2 SWAP1 PUSH2 0x87C JUMP JUMPDEST PUSH2 0x2DA JUMP JUMPDEST PUSH1 0x40 MLOAD PUSH2 0xD0 SWAP6 SWAP5 SWAP4 SWAP3 SWAP2 SWAP1 PUSH2 0x984 JUMP JUMPDEST PUSH1 0x40 MLOAD DUP1 SWAP2 SUB SWAP1 RETURN JUMPDEST PUSH2 0xF3 PUSH1 0x4 DUP1 CALLDATASIZE SUB DUP2 ADD SWAP1 PUSH2 0xEE SWAP2 SWAP1 PUSH2 0x87C JUMP JUMPDEST PUSH2 0x3C5 JUMP JUMPDEST STOP JUMPDEST PUSH1 0x0 DUP3 MLOAD GT PUSH2 0x139 JUMPI PUSH1 0x40 MLOAD PUSH32 0x8C379A000000000000000000000000000000000000000000000000000000000 DUP2 MSTORE PUSH1 0x4 ADD PUSH2 0x130 SWAP1 PUSH2 0xA2A JUMP JUMPDEST PUSH1 0x40 MLOAD DUP1 SWAP2 SUB SWAP1 REVERT JUMPDEST PUSH1 0x0 DUP2 GT PUSH2 0x17C JUMPI PUSH1 0x40 MLOAD PUSH32 0x8C379A000000000000000000000000000000000000000000000000000000000 DUP2 MSTORE PUSH1 0x4 ADD PUSH2 0x173 SWAP1 PUSH2 0xA96 JUMP JUMPDEST PUSH1 0x40 MLOAD DUP1 SWAP2 SUB SWAP1 REVERT JUMPDEST PUSH1 0x0 DUP1 DUP2 SLOAD DUP1 SWAP3 SWAP2 SWAP1 PUSH2 0x18E SWAP1 PUSH2 0xAE5 JUMP JUMPDEST SWAP2 SWAP1 POP SSTORE POP PUSH1 0x40 MLOAD DUP1 PUSH1 0xA0 ADD PUSH1 0x40 MSTORE DUP1 PUSH1 0x0 SLOAD DUP2 MSTORE PUSH1 0x20 ADD CALLER PUSH20 0xFFFFFFFFFFFFFFFFFFFFFFFFFFFFFFFFFFFFFFFF AND DUP2 MSTORE PUSH1 0x20 ADD DUP4 DUP2 MSTORE PUSH1 0x20 ADD DUP3 DUP2 MSTORE PUSH1 0x20 ADD PUSH1 0x0 ISZERO ISZERO DUP2 MSTORE POP PUSH1 0x1 PUSH1 0x0 DUP1 SLOAD DUP2 MSTORE PUSH1 0x20 ADD SWAP1 DUP2 MSTORE PUSH1 0x20 ADD PUSH1 0x0 KECCAK256 PUSH1 0x0 DUP3 ADD MLOAD DUP2 PUSH1 0x0 ADD SSTORE PUSH1 0x20 DUP3 ADD MLOAD DUP2 PUSH1 0x1 ADD PUSH1 0x0 PUSH2 0x100 EXP DUP2 SLOAD DUP2 PUSH20 0xFFFFFFFFFFFFFFFFFFFFFFFFFFFFFFFFFFFFFFFF MUL NOT AND SWAP1 DUP4 PUSH20 0xFFFFFFFFFFFFFFFFFFFFFFFFFFFFFFFFFFFFFFFF AND MUL OR SWAP1 SSTORE POP PUSH1 0x40 DUP3 ADD MLOAD DUP2 PUSH1 0x2 ADD SWAP1 DUP2 PUSH2 0x24F SWAP2 SWAP1 PUSH2 0xD39 JUMP JUMPDEST POP PUSH1 0x60 DUP3 ADD MLOAD DUP2 PUSH1 0x3 ADD SSTORE PUSH1 0x80 DUP3 ADD MLOAD DUP2 PUSH1 0x4 ADD PUSH1 0x0 PUSH2 0x100 EXP DUP2 SLOAD DUP2 PUSH1 0xFF MUL NOT AND SWAP1 DUP4 ISZERO ISZERO MUL OR SWAP1 SSTORE POP SWAP1 POP POP CALLER PUSH20 0xFFFFFFFFFFFFFFFFFFFFFFFFFFFFFFFFFFFFFFFF AND PUSH1 0x0 SLOAD PUSH32 0xDB174402D29AC972EF2549A86D490B58FBE924B976BAF8580FF0DE417D4C5A53 DUP5 DUP5 PUSH1 0x40 MLOAD PUSH2 0x2C8 SWAP3 SWAP2 SWAP1 PUSH2 0xE0B JUMP JUMPDEST PUSH1 0x40 MLOAD DUP1 SWAP2 SUB SWAP1 LOG3 POP POP JUMP JUMPDEST PUSH1 0x0 SLOAD DUP2 JUMP JUMPDEST PUSH1 0x1 PUSH1 0x20 MSTORE DUP1 PUSH1 0x0 MSTORE PUSH1 0x40 PUSH1 0x0 KECCAK256 PUSH1 0x0 SWAP2 POP SWAP1 POP DUP1 PUSH1 0x0 ADD SLOAD SWAP1 DUP1 PUSH1 0x1 ADD PUSH1 0x0 SWAP1 SLOAD SWAP1 PUSH2 0x100 EXP SWAP1 DIV PUSH20 0xFFFFFFFFFFFFFFFFFFFFFFFFFFFFFFFFFFFFFFFF AND SWAP1 DUP1 PUSH1 0x2 ADD DUP1 SLOAD PUSH2 0x329 SWAP1 PUSH2 0xB5C JUMP JUMPDEST DUP1 PUSH1 0x1F ADD PUSH1 0x20 DUP1 SWAP2 DIV MUL PUSH1 0x20 ADD PUSH1 0x40 MLOAD SWAP1 DUP2 ADD PUSH1 0x40 MSTORE DUP1 SWAP3 SWAP2 SWAP1 DUP2 DUP2 MSTORE PUSH1 0x20 ADD DUP3 DUP1 SLOAD PUSH2 0x355 SWAP1 PUSH2 0xB5C JUMP JUMPDEST DUP1 ISZERO PUSH2 0x3A2 JUMPI DUP1 PUSH1 0x1F LT PUSH2 0x377 JUMPI PUSH2 0x100 DUP1 DUP4 SLOAD DIV MUL DUP4 MSTORE SWAP2 PUSH1 0x20 ADD SWAP2 PUSH2 0x3A2 JUMP JUMPDEST DUP3 ADD SWAP2 SWAP1 PUSH1 0x0 MSTORE PUSH1 0x20 PUSH1 0x0 KECCAK256 SWAP1 JUMPDEST DUP2 SLOAD DUP2 MSTORE SWAP1 PUSH1 0x1 ADD SWAP1 PUSH1 0x20 ADD DUP1 DUP4 GT PUSH2 0x385 JUMPI DUP3 SWAP1 SUB PUSH1 0x1F AND DUP3 ADD SWAP2 JUMPDEST POP POP POP POP POP SWAP1 DUP1 PUSH1 0x3 ADD SLOAD SWAP1 DUP1 PUSH1 0x4 ADD PUSH1 0x0 SWAP1 SLOAD SWAP1 PUSH2 0x100 EXP SWAP1 DIV PUSH1 0xFF AND SWAP1 POP DUP6 JUMP JUMPDEST PUSH1 0x0 PUSH1 0x1 PUSH1 0x0 DUP4 DUP2 MSTORE PUSH1 0x20 ADD SWAP1 DUP2 MSTORE PUSH1 0x20 ADD PUSH1 0x0 KECCAK256 SWAP1 POP DUP2 DUP2 PUSH1 0x0 ADD SLOAD EQ PUSH2 0x422 JUMPI PUSH1 0x40 MLOAD PUSH32 0x8C379A000000000000000000000000000000000000000000000000000000000 DUP2 MSTORE PUSH1 0x4 ADD PUSH2 0x419 SWAP1 PUSH2 0xE87 JUMP JUMPDEST PUSH1 0x40 MLOAD DUP1 SWAP2 SUB SWAP1 REVERT JUMPDEST DUP1 PUSH1 0x3 ADD SLOAD CALLVALUE EQ PUSH2 0x468 JUMPI PUSH1 0x40 MLOAD PUSH32 0x8C379A000000000000000000000000000000000000000000000000000000000 DUP2 MSTORE PUSH1 0x4 ADD PUSH2 0x45F SWAP1 PUSH2 0xEF3 JUMP JUMPDEST PUSH1 0x40 MLOAD DUP1 SWAP2 SUB SWAP1 REVERT JUMPDEST DUP1 PUSH1 0x4 ADD PUSH1 0x0 SWAP1 SLOAD SWAP1 PUSH2 0x100 EXP SWAP1 DIV PUSH1 0xFF AND ISZERO PUSH2 0x4BA JUMPI PUSH1 0x40 MLOAD PUSH32 0x8C379A000000000000000000000000000000000000000000000000000000000 DUP2 MSTORE PUSH1 0x4 ADD PUSH2 0x4B1 SWAP1 PUSH2 0xF5F JUMP JUMPDEST PUSH1 0x40 MLOAD DUP1 SWAP2 SUB SWAP1 REVERT JUMPDEST DUP1 PUSH1 0x1 ADD PUSH1 0x0 SWAP1 SLOAD SWAP1 PUSH2 0x100 EXP SWAP1 DIV PUSH20 0xFFFFFFFFFFFFFFFFFFFFFFFFFFFFFFFFFFFFFFFF AND PUSH20 0xFFFFFFFFFFFFFFFFFFFFFFFFFFFFFFFFFFFFFFFF AND CALLER PUSH20 0xFFFFFFFFFFFFFFFFFFFFFFFFFFFFFFFFFFFFFFFF AND SUB PUSH2 0x54C JUMPI PUSH1 0x40 MLOAD PUSH32 0x8C379A000000000000000000000000000000000000000000000000000000000 DUP2 MSTORE PUSH1 0x4 ADD PUSH2 0x543 SWAP1 PUSH2 0xFCB JUMP JUMPDEST PUSH1 0x40 MLOAD DUP1 SWAP2 SUB SWAP1 REVERT JUMPDEST PUSH1 0x1 DUP2 PUSH1 0x4 ADD PUSH1 0x0 PUSH2 0x100 EXP DUP2 SLOAD DUP2 PUSH1 0xFF MUL NOT AND SWAP1 DUP4 ISZERO ISZERO MUL OR SWAP1 SSTORE POP DUP1 PUSH1 0x1 ADD PUSH1 0x0 SWAP1 SLOAD SWAP1 PUSH2 0x100 EXP SWAP1 DIV PUSH20 0xFFFFFFFFFFFFFFFFFFFFFFFFFFFFFFFFFFFFFFFF AND PUSH20 0xFFFFFFFFFFFFFFFFFFFFFFFFFFFFFFFFFFFFFFFF AND PUSH2 0x8FC CALLVALUE SWAP1 DUP2 ISZERO MUL SWAP1 PUSH1 0x40 MLOAD PUSH1 0x0 PUSH1 0x40 MLOAD DUP1 DUP4 SUB DUP2 DUP6 DUP9 DUP9 CALL SWAP4 POP POP POP POP ISZERO DUP1 ISZERO PUSH2 0x5D3 JUMPI RETURNDATASIZE PUSH1 0x0 DUP1 RETURNDATACOPY RETURNDATASIZE PUSH1 0x0 REVERT JUMPDEST POP DUP1 PUSH1 0x1 ADD PUSH1 0x0 SWAP1 SLOAD SWAP1 PUSH2 0x100 EXP SWAP1 DIV PUSH20 0xFFFFFFFFFFFFFFFFFFFFFFFFFFFFFFFFFFFFFFFF AND PUSH20 0xFFFFFFFFFFFFFFFFFFFFFFFFFFFFFFFFFFFFFFFF AND CALLER PUSH20 0xFFFFFFFFFFFFFFFFFFFFFFFFFFFFFFFFFFFFFFFF AND DUP4 PUSH32 0x29AE2CFD57568E7CBCC0D11CDA1CEB179A63C64F951E147665951D60AA946A7B DUP5 PUSH1 0x3 ADD SLOAD PUSH1 0x40 MLOAD PUSH2 0x65A SWAP2 SWAP1 PUSH2 0x861 JUMP JUMPDEST PUSH1 0x40 MLOAD DUP1 SWAP2 SUB SWAP1 LOG4 POP POP JUMP JUMPDEST PUSH1 0x0 PUSH1 0x40 MLOAD SWAP1 POP SWAP1 JUMP JUMPDEST PUSH1 0x0 DUP1 REVERT JUMPDEST PUSH1 0x0 DUP1 REVERT JUMPDEST PUSH1 0x0 DUP1 REVERT JUMPDEST PUSH1 0x0 DUP1 REVERT JUMPDEST PUSH1 0x0 PUSH1 0x1F NOT PUSH1 0x1F DUP4 ADD AND SWAP1 POP SWAP2 SWAP1 POP JUMP JUMPDEST PUSH32 0x4E487B7100000000000000000000000000000000000000000000000000000000 PUSH1 0x0 MSTORE PUSH1 0x41 PUSH1 0x4 MSTORE PUSH1 0x24 PUSH1 0x0 REVERT JUMPDEST PUSH2 0x6CD DUP3 PUSH2 0x684 JUMP JUMPDEST DUP2 ADD DUP2 DUP2 LT PUSH8 0xFFFFFFFFFFFFFFFF DUP3 GT OR ISZERO PUSH2 0x6EC JUMPI PUSH2 0x6EB PUSH2 0x695 JUMP JUMPDEST JUMPDEST DUP1 PUSH1 0x40 MSTORE POP POP POP JUMP JUMPDEST PUSH1 0x0 PUSH2 0x6FF PUSH2 0x666 JUMP JUMPDEST SWAP1 POP PUSH2 0x70B DUP3 DUP3 PUSH2 0x6C4 JUMP JUMPDEST SWAP2 SWAP1 POP JUMP JUMPDEST PUSH1 0x0 PUSH8 0xFFFFFFFFFFFFFFFF DUP3 GT ISZERO PUSH2 0x72B JUMPI PUSH2 0x72A PUSH2 0x695 JUMP JUMPDEST JUMPDEST PUSH2 0x734 DUP3 PUSH2 0x684 JUMP JUMPDEST SWAP1 POP PUSH1 0x20 DUP2 ADD SWAP1 POP SWAP2 SWAP1 POP JUMP JUMPDEST DUP3 DUP2 DUP4 CALLDATACOPY PUSH1 0x0 DUP4 DUP4 ADD MSTORE POP POP POP JUMP JUMPDEST PUSH1 0x0 PUSH2 0x763 PUSH2 0x75E DUP5 PUSH2 0x710 JUMP JUMPDEST PUSH2 0x6F5 JUMP JUMPDEST SWAP1 POP DUP3 DUP2 MSTORE PUSH1 0x20 DUP2 ADD DUP5 DUP5 DUP5 ADD GT ISZERO PUSH2 0x77F JUMPI PUSH2 0x77E PUSH2 0x67F JUMP JUMPDEST JUMPDEST PUSH2 0x78A DUP5 DUP3 DUP6 PUSH2 0x741 JUMP JUMPDEST POP SWAP4 SWAP3 POP POP POP JUMP JUMPDEST PUSH1 0x0 DUP3 PUSH1 0x1F DUP4 ADD SLT PUSH2 0x7A7 JUMPI PUSH2 0x7A6 PUSH2 0x67A JUMP JUMPDEST JUMPDEST DUP2 CALLDATALOAD PUSH2 0x7B7 DUP5 DUP3 PUSH1 0x20 DUP7 ADD PUSH2 0x750 JUMP JUMPDEST SWAP2 POP POP SWAP3 SWAP2 POP POP JUMP JUMPDEST PUSH1 0x0 DUP2 SWAP1 POP SWAP2 SWAP1 POP JUMP JUMPDEST PUSH2 0x7D3 DUP2 PUSH2 0x7C0 JUMP JUMPDEST DUP2 EQ PUSH2 0x7DE JUMPI PUSH1 0x0 DUP1 REVERT JUMPDEST POP JUMP JUMPDEST PUSH1 0x0 DUP2 CALLDATALOAD SWAP1 POP PUSH2 0x7F0 DUP2 PUSH2 0x7CA JUMP JUMPDEST SWAP3 SWAP2 POP POP JUMP JUMPDEST PUSH1 0x0 DUP1 PUSH1 0x40 DUP4 DUP6 SUB SLT ISZERO PUSH2 0x80D JUMPI PUSH2 0x80C PUSH2 0x670 JUMP JUMPDEST JUMPDEST PUSH1 0x0 DUP4 ADD CALLDATALOAD PUSH8 0xFFFFFFFFFFFFFFFF DUP2 GT ISZERO PUSH2 0x82B JUMPI PUSH2 0x82A PUSH2 0x675 JUMP JUMPDEST JUMPDEST PUSH2 0x837 DUP6 DUP3 DUP7 ADD PUSH2 0x792 JUMP JUMPDEST SWAP3 POP POP PUSH1 0x20 PUSH2 0x848 DUP6 DUP3 DUP7 ADD PUSH2 0x7E1 JUMP JUMPDEST SWAP2 POP POP SWAP3 POP SWAP3 SWAP1 POP JUMP JUMPDEST PUSH2 0x85B DUP2 PUSH2 0x7C0 JUMP JUMPDEST DUP3 MSTORE POP POP JUMP JUMPDEST PUSH1 0x0 PUSH1 0x20 DUP3 ADD SWAP1 POP PUSH2 0x876 PUSH1 0x0 DUP4 ADD DUP5 PUSH2 0x852 JUMP JUMPDEST SWAP3 SWAP2 POP POP JUMP JUMPDEST PUSH1 0x0 PUSH1 0x20 DUP3 DUP5 SUB SLT ISZERO PUSH2 0x892 JUMPI PUSH2 0x891 PUSH2 0x670 JUMP JUMPDEST JUMPDEST PUSH1 0x0 PUSH2 0x8A0 DUP5 DUP3 DUP6 ADD PUSH2 0x7E1 JUMP JUMPDEST SWAP2 POP POP SWAP3 SWAP2 POP POP JUMP JUMPDEST PUSH1 0x0 PUSH20 0xFFFFFFFFFFFFFFFFFFFFFFFFFFFFFFFFFFFFFFFF DUP3 AND SWAP1 POP SWAP2 SWAP1 POP JUMP JUMPDEST PUSH1 0x0 PUSH2 0x8D4 DUP3 PUSH2 0x8A9 JUMP JUMPDEST SWAP1 POP SWAP2 SWAP1 POP JUMP JUMPDEST PUSH2 0x8E4 DUP2 PUSH2 0x8C9 JUMP JUMPDEST DUP3 MSTORE POP POP JUMP JUMPDEST PUSH1 0x0 DUP2 MLOAD SWAP1 POP SWAP2 SWAP1 POP JUMP JUMPDEST PUSH1 0x0 DUP3 DUP3 MSTORE PUSH1 0x20 DUP3 ADD SWAP1 POP SWAP3 SWAP2 POP POP JUMP JUMPDEST PUSH1 0x0 JUMPDEST DUP4 DUP2 LT ISZERO PUSH2 0x924 JUMPI DUP1 DUP3 ADD MLOAD DUP2 DUP5 ADD MSTORE PUSH1 0x20 DUP2 ADD SWAP1 POP PUSH2 0x909 JUMP JUMPDEST PUSH1 0x0 DUP5 DUP5 ADD MSTORE POP POP POP POP JUMP JUMPDEST PUSH1 0x0 PUSH2 0x93B DUP3 PUSH2 0x8EA JUMP JUMPDEST PUSH2 0x945 DUP2 DUP6 PUSH2 0x8F5 JUMP JUMPDEST SWAP4 POP PUSH2 0x955 DUP2 DUP6 PUSH1 0x20 DUP7 ADD PUSH2 0x906 JUMP JUMPDEST PUSH2 0x95E DUP2 PUSH2 0x684 JUMP JUMPDEST DUP5 ADD SWAP2 POP POP SWAP3 SWAP2 POP POP JUMP JUMPDEST PUSH1 0x0 DUP2 ISZERO ISZERO SWAP1 POP SWAP2 SWAP1 POP JUMP JUMPDEST PUSH2 0x97E DUP2 PUSH2 0x969 JUMP JUMPDEST DUP3 MSTORE POP POP JUMP JUMPDEST PUSH1 0x0 PUSH1 0xA0 DUP3 ADD SWAP1 POP PUSH2 0x999 PUSH1 0x0 DUP4 ADD DUP9 PUSH2 0x852 JUMP JUMPDEST PUSH2 0x9A6 PUSH1 0x20 DUP4 ADD DUP8 PUSH2 0x8DB JUMP JUMPDEST DUP2 DUP2 SUB PUSH1 0x40 DUP4 ADD MSTORE PUSH2 0x9B8 DUP2 DUP7 PUSH2 0x930 JUMP JUMPDEST SWAP1 POP PUSH2 0x9C7 PUSH1 0x60 DUP4 ADD DUP6 PUSH2 0x852 JUMP JUMPDEST PUSH2 0x9D4 PUSH1 0x80 DUP4 ADD DUP5 PUSH2 0x975 JUMP JUMPDEST SWAP7 SWAP6 POP POP POP POP POP POP JUMP JUMPDEST PUSH32 0x4974656D206E616D652069732072657175697265640000000000000000000000 PUSH1 0x0 DUP3 ADD MSTORE POP JUMP JUMPDEST PUSH1 0x0 PUSH2 0xA14 PUSH1 0x15 DUP4 PUSH2 0x8F5 JUMP JUMPDEST SWAP2 POP PUSH2 0xA1F DUP3 PUSH2 0x9DE JUMP JUMPDEST PUSH1 0x20 DUP3 ADD SWAP1 POP SWAP2 SWAP1 POP JUMP JUMPDEST PUSH1 0x0 PUSH1 0x20 DUP3 ADD SWAP1 POP DUP2 DUP2 SUB PUSH1 0x0 DUP4 ADD MSTORE PUSH2 0xA43 DUP2 PUSH2 0xA07 JUMP JUMPDEST SWAP1 POP SWAP2 SWAP1 POP JUMP JUMPDEST PUSH32 0x50726963652073686F756C642062652067726561746572207468616E20300000 PUSH1 0x0 DUP3 ADD MSTORE POP JUMP JUMPDEST PUSH1 0x0 PUSH2 0xA80 PUSH1 0x1E DUP4 PUSH2 0x8F5 JUMP JUMPDEST SWAP2 POP PUSH2 0xA8B DUP3 PUSH2 0xA4A JUMP JUMPDEST PUSH1 0x20 DUP3 ADD SWAP1 POP SWAP2 SWAP1 POP JUMP JUMPDEST PUSH1 0x0 PUSH1 0x20 DUP3 ADD SWAP1 POP DUP2 DUP2 SUB PUSH1 0x0 DUP4 ADD MSTORE PUSH2 0xAAF DUP2 PUSH2 0xA73 JUMP JUMPDEST SWAP1 POP SWAP2 SWAP1 POP JUMP JUMPDEST PUSH32 0x4E487B7100000000000000000000000000000000000000000000000000000000 PUSH1 0x0 MSTORE PUSH1 0x11 PUSH1 0x4 MSTORE PUSH1 0x24 PUSH1 0x0 REVERT JUMPDEST PUSH1 0x0 PUSH2 0xAF0 DUP3 PUSH2 0x7C0 JUMP JUMPDEST SWAP2 POP PUSH32 0xFFFFFFFFFFFFFFFFFFFFFFFFFFFFFFFFFFFFFFFFFFFFFFFFFFFFFFFFFFFFFFFF DUP3 SUB PUSH2 0xB22 JUMPI PUSH2 0xB21 PUSH2 0xAB6 JUMP JUMPDEST JUMPDEST PUSH1 0x1 DUP3 ADD SWAP1 POP SWAP2 SWAP1 POP JUMP JUMPDEST PUSH32 0x4E487B7100000000000000000000000000000000000000000000000000000000 PUSH1 0x0 MSTORE PUSH1 0x22 PUSH1 0x4 MSTORE PUSH1 0x24 PUSH1 0x0 REVERT JUMPDEST PUSH1 0x0 PUSH1 0x2 DUP3 DIV SWAP1 POP PUSH1 0x1 DUP3 AND DUP1 PUSH2 0xB74 JUMPI PUSH1 0x7F DUP3 AND SWAP2 POP JUMPDEST PUSH1 0x20 DUP3 LT DUP2 SUB PUSH2 0xB87 JUMPI PUSH2 0xB86 PUSH2 0xB2D JUMP JUMPDEST JUMPDEST POP SWAP2 SWAP1 POP JUMP JUMPDEST PUSH1 0x0 DUP2 SWAP1 POP DUP2 PUSH1 0x0 MSTORE PUSH1 0x20 PUSH1 0x0 KECCAK256 SWAP1 POP SWAP2 SWAP1 POP JUMP JUMPDEST PUSH1 0x0 PUSH1 0x20 PUSH1 0x1F DUP4 ADD DIV SWAP1 POP SWAP2 SWAP1 POP JUMP JUMPDEST PUSH1 0x0 DUP3 DUP3 SHL SWAP1 POP SWAP3 SWAP2 POP POP JUMP JUMPDEST PUSH1 0x0 PUSH1 0x8 DUP4 MUL PUSH2 0xBEF PUSH32 0xFFFFFFFFFFFFFFFFFFFFFFFFFFFFFFFFFFFFFFFFFFFFFFFFFFFFFFFFFFFFFFFF DUP3 PUSH2 0xBB2 JUMP JUMPDEST PUSH2 0xBF9 DUP7 DUP4 PUSH2 0xBB2 JUMP JUMPDEST SWAP6 POP DUP1 NOT DUP5 AND SWAP4 POP DUP1 DUP7 AND DUP5 OR SWAP3 POP POP POP SWAP4 SWAP3 POP POP POP JUMP JUMPDEST PUSH1 0x0 DUP2 SWAP1 POP SWAP2 SWAP1 POP JUMP JUMPDEST PUSH1 0x0 PUSH2 0xC36 PUSH2 0xC31 PUSH2 0xC2C DUP5 PUSH2 0x7C0 JUMP JUMPDEST PUSH2 0xC11 JUMP JUMPDEST PUSH2 0x7C0 JUMP JUMPDEST SWAP1 POP SWAP2 SWAP1 POP JUMP JUMPDEST PUSH1 0x0 DUP2 SWAP1 POP SWAP2 SWAP1 POP JUMP JUMPDEST PUSH2 0xC50 DUP4 PUSH2 0xC1B JUMP JUMPDEST PUSH2 0xC64 PUSH2 0xC5C DUP3 PUSH2 0xC3D JUMP JUMPDEST DUP5 DUP5 SLOAD PUSH2 0xBBF JUMP JUMPDEST DUP3 SSTORE POP POP POP POP JUMP JUMPDEST PUSH1 0x0 SWAP1 JUMP JUMPDEST PUSH2 0xC79 PUSH2 0xC6C JUMP JUMPDEST PUSH2 0xC84 DUP2 DUP5 DUP5 PUSH2 0xC47 JUMP JUMPDEST POP POP POP JUMP JUMPDEST JUMPDEST DUP2 DUP2 LT ISZERO PUSH2 0xCA8 JUMPI PUSH2 0xC9D PUSH1 0x0 DUP3 PUSH2 0xC71 JUMP JUMPDEST PUSH1 0x1 DUP2 ADD SWAP1 POP PUSH2 0xC8A JUMP JUMPDEST POP POP JUMP JUMPDEST PUSH1 0x1F DUP3 GT ISZERO PUSH2 0xCED JUMPI PUSH2 0xCBE DUP2 PUSH2 0xB8D JUMP JUMPDEST PUSH2 0xCC7 DUP5 PUSH2 0xBA2 JUMP JUMPDEST DUP2 ADD PUSH1 0x20 DUP6 LT ISZERO PUSH2 0xCD6 JUMPI DUP2 SWAP1 POP JUMPDEST PUSH2 0xCEA PUSH2 0xCE2 DUP6 PUSH2 0xBA2 JUMP JUMPDEST DUP4 ADD DUP3 PUSH2 0xC89 JUMP JUMPDEST POP POP JUMPDEST POP POP POP JUMP JUMPDEST PUSH1 0x0 DUP3 DUP3 SHR SWAP1 POP SWAP3 SWAP2 POP POP JUMP JUMPDEST PUSH1 0x0 PUSH2 0xD10 PUSH1 0x0 NOT DUP5 PUSH1 0x8 MUL PUSH2 0xCF2 JUMP JUMPDEST NOT DUP1 DUP4 AND SWAP2 POP POP SWAP3 SWAP2 POP POP JUMP JUMPDEST PUSH1 0x0 PUSH2 0xD29 DUP4 DUP4 PUSH2 0xCFF JUMP JUMPDEST SWAP2 POP DUP3 PUSH1 0x2 MUL DUP3 OR SWAP1 POP SWAP3 SWAP2 POP POP JUMP JUMPDEST PUSH2 0xD42 DUP3 PUSH2 0x8EA JUMP JUMPDEST PUSH8 0xFFFFFFFFFFFFFFFF DUP2 GT ISZERO PUSH2 0xD5B JUMPI PUSH2 0xD5A PUSH2 0x695 JUMP JUMPDEST JUMPDEST PUSH2 0xD65 DUP3 SLOAD PUSH2 0xB5C JUMP JUMPDEST PUSH2 0xD70 DUP3 DUP3 DUP6 PUSH2 0xCAC JUMP JUMPDEST PUSH1 0x0 PUSH1 0x20 SWAP1 POP PUSH1 0x1F DUP4 GT PUSH1 0x1 DUP2 EQ PUSH2 0xDA3 JUMPI PUSH1 0x0 DUP5 ISZERO PUSH2 0xD91 JUMPI DUP3 DUP8 ADD MLOAD SWAP1 POP JUMPDEST PUSH2 0xD9B DUP6 DUP3 PUSH2 0xD1D JUMP JUMPDEST DUP7 SSTORE POP PUSH2 0xE03 JUMP JUMPDEST PUSH1 0x1F NOT DUP5 AND PUSH2 0xDB1 DUP7 PUSH2 0xB8D JUMP JUMPDEST PUSH1 0x0 JUMPDEST DUP3 DUP2 LT ISZERO PUSH2 0xDD9 JUMPI DUP5 DUP10 ADD MLOAD DUP3 SSTORE PUSH1 0x1 DUP3 ADD SWAP2 POP PUSH1 0x20 DUP6 ADD SWAP5 POP PUSH1 0x20 DUP2 ADD SWAP1 POP PUSH2 0xDB4 JUMP JUMPDEST DUP7 DUP4 LT ISZERO PUSH2 0xDF6 JUMPI DUP5 DUP10 ADD MLOAD PUSH2 0xDF2 PUSH1 0x1F DUP10 AND DUP3 PUSH2 0xCFF JUMP JUMPDEST DUP4 SSTORE POP JUMPDEST PUSH1 0x1 PUSH1 0x2 DUP9 MUL ADD DUP9 SSTORE POP POP POP JUMPDEST POP POP POP POP POP POP JUMP JUMPDEST PUSH1 0x0 PUSH1 0x40 DUP3 ADD SWAP1 POP DUP2 DUP2 SUB PUSH1 0x0 DUP4 ADD MSTORE PUSH2 0xE25 DUP2 DUP6 PUSH2 0x930 JUMP JUMPDEST SWAP1 POP PUSH2 0xE34 PUSH1 0x20 DUP4 ADD DUP5 PUSH2 0x852 JUMP JUMPDEST SWAP4 SWAP3 POP POP POP JUMP JUMPDEST PUSH32 0x6974656D20646F6573206E6F7420657869737400000000000000000000000000 PUSH1 0x0 DUP3 ADD MSTORE POP JUMP JUMPDEST PUSH1 0x0 PUSH2 0xE71 PUSH1 0x13 DUP4 PUSH2 0x8F5 JUMP JUMPDEST SWAP2 POP PUSH2 0xE7C DUP3 PUSH2 0xE3B JUMP JUMPDEST PUSH1 0x20 DUP3 ADD SWAP1 POP SWAP2 SWAP1 POP JUMP JUMPDEST PUSH1 0x0 PUSH1 0x20 DUP3 ADD SWAP1 POP DUP2 DUP2 SUB PUSH1 0x0 DUP4 ADD MSTORE PUSH2 0xEA0 DUP2 PUSH2 0xE64 JUMP JUMPDEST SWAP1 POP SWAP2 SWAP1 POP JUMP JUMPDEST PUSH32 0x696E636F72726563742065746865722073656E74000000000000000000000000 PUSH1 0x0 DUP3 ADD MSTORE POP JUMP JUMPDEST PUSH1 0x0 PUSH2 0xEDD PUSH1 0x14 DUP4 PUSH2 0x8F5 JUMP JUMPDEST SWAP2 POP PUSH2 0xEE8 DUP3 PUSH2 0xEA7 JUMP JUMPDEST PUSH1 0x20 DUP3 ADD SWAP1 POP SWAP2 SWAP1 POP JUMP JUMPDEST PUSH1 0x0 PUSH1 0x20 DUP3 ADD SWAP1 POP DUP2 DUP2 SUB PUSH1 0x0 DUP4 ADD MSTORE PUSH2 0xF0C DUP2 PUSH2 0xED0 JUMP JUMPDEST SWAP1 POP SWAP2 SWAP1 POP JUMP JUMPDEST PUSH32 0x6974656D20616C726561647920736F6C646F7574000000000000000000000000 PUSH1 0x0 DUP3 ADD MSTORE POP JUMP JUMPDEST PUSH1 0x0 PUSH2 0xF49 PUSH1 0x14 DUP4 PUSH2 0x8F5 JUMP JUMPDEST SWAP2 POP PUSH2 0xF54 DUP3 PUSH2 0xF13 JUMP JUMPDEST PUSH1 0x20 DUP3 ADD SWAP1 POP SWAP2 SWAP1 POP JUMP JUMPDEST PUSH1 0x0 PUSH1 0x20 DUP3 ADD SWAP1 POP DUP2 DUP2 SUB PUSH1 0x0 DUP4 ADD MSTORE PUSH2 0xF78 DUP2 PUSH2 0xF3C JUMP JUMPDEST SWAP1 POP SWAP2 SWAP1 POP JUMP JUMPDEST PUSH32 0x73656C6C65722063616E6E6F7420627579207468656972206F776E206974656D PUSH1 0x0 DUP3 ADD MSTORE POP JUMP JUMPDEST PUSH1 0x0 PUSH2 0xFB5 PUSH1 0x20 DUP4 PUSH2 0x8F5 JUMP JUMPDEST SWAP2 POP PUSH2 0xFC0 DUP3 PUSH2 0xF7F JUMP JUMPDEST PUSH1 0x20 DUP3 ADD SWAP1 POP SWAP2 SWAP1 POP JUMP JUMPDEST PUSH1 0x0 PUSH1 0x20 DUP3 ADD SWAP1 POP DUP2 DUP2 SUB PUSH1 0x0 DUP4 ADD MSTORE PUSH2 0xFE4 DUP2 PUSH2 0xFA8 JUMP JUMPDEST SWAP1 POP SWAP2 SWAP1 POP JUMP INVALID LOG2 PUSH5 0x6970667358 0x22 SLT KECCAK256 DUP4 SSTORE PUSH31 0x40FE8A985E3BA363C00D5A08B37C8A930F8914CBC2B07D76EFA4DD3E66473 PUSH16 0x6C634300081300330000000000000000 "
				},
				"gasEstimates": {
					"creation": {
						"codeDepositCost": "825800",
						"executionCost": "5870",
						"totalCost": "831670"
					},
					"external": {
						"buyItem(uint256)": "infinite",
						"itemCount()": "2429",
						"items(uint256)": "infinite",
						"listitem(string,uint256)": "infinite"
					}
				},
				"methodIdentifiers": {
					"buyItem(uint256)": "e7fb74c7",
					"itemCount()": "6bfb0d01",
					"items(uint256)": "bfb231d2",
					"listitem(string,uint256)": "0e17887b"
				}
			},
			"storageLayout": {
				"storage": [
					{
						"astId": 15,
						"contract": "MarketPlace/MarketPlace.sol:MarketPlace",
						"label": "itemCount",
						"offset": 0,
						"slot": "0",
						"type": "t_uint256"
					},
					{
						"astId": 20,
						"contract": "MarketPlace/MarketPlace.sol:MarketPlace",
						"label": "items",
						"offset": 0,
						"slot": "1",
						"type": "t_mapping(t_uint256,t_struct(item)12_storage)"
					}
				],
				"types": {
					"t_address_payable": {
						"encoding": "inplace",
						"label": "address payable",
						"numberOfBytes": "20"
					},
					"t_bool": {
						"encoding": "inplace",
						"label": "bool",
						"numberOfBytes": "1"
					},
					"t_mapping(t_uint256,t_struct(item)12_storage)": {
						"encoding": "mapping",
						"key": "t_uint256",
						"label": "mapping(uint256 => struct MarketPlace.item)",
						"numberOfBytes": "32",
						"value": "t_struct(item)12_storage"
					},
					"t_string_storage": {
						"encoding": "bytes",
						"label": "string",
						"numberOfBytes": "32"
					},
					"t_struct(item)12_storage": {
						"encoding": "inplace",
						"label": "struct MarketPlace.item",
						"members": [
							{
								"astId": 3,
								"contract": "MarketPlace/MarketPlace.sol:MarketPlace",
								"label": "id",
								"offset": 0,
								"slot": "0",
								"type": "t_uint256"
							},
							{
								"astId": 5,
								"contract": "MarketPlace/MarketPlace.sol:MarketPlace",
								"label": "seller",
								"offset": 0,
								"slot": "1",
								"type": "t_address_payable"
							},
							{
								"astId": 7,
								"contract": "MarketPlace/MarketPlace.sol:MarketPlace",
								"label": "name",
								"offset": 0,
								"slot": "2",
								"type": "t_string_storage"
							},
							{
								"astId": 9,
								"contract": "MarketPlace/MarketPlace.sol:MarketPlace",
								"label": "price",
								"offset": 0,
								"slot": "3",
								"type": "t_uint256"
							},
							{
								"astId": 11,
								"contract": "MarketPlace/MarketPlace.sol:MarketPlace",
								"label": "isSold",
								"offset": 0,
								"slot": "4",
								"type": "t_bool"
							}
						],
						"numberOfBytes": "160"
					},
					"t_uint256": {
						"encoding": "inplace",
						"label": "uint256",
						"numberOfBytes": "32"
					}
				}
			},
			"userdoc": {
				"kind": "user",
				"methods": {},
				"version": 1
			}
		}
	}
}